:020000040800F2
:1000000000200020B53800080D360008173600081B
:1000100000000000000000000000000000000000E0
:100020000000000000000000000000001D36000875
:1000300000000000000000002736000831360008EC
:100040000539000805390008053900080539000898
:10005000053900080539000841360008053900084F
:1000600000000000053900080539000805390008BE
:1000700005390008053900080000000005390008AE
:10008000000000000539000800000000000000002A
:10009000053900080000000005390008053900088E
:1000A0000539000805390008053900080D33000836
:1000B00005390008053900080000000000000000B4
:1000C00010B5064C2378002B07D1054B002B02D02E
:1000D000044800E000BF0123237010BD201400205D
:1000E0000000000078400008044B10B5002B03D03E
:1000F0000349044800E000BF10BDC04600000000F6
:100100002414002078400008002243088B4274D356
:1001100003098B425FD3030A8B4244D3030B8B4208
:1001200028D3030C8B420DD3FF22090212BA030C11
:100130008B4202D31212090265D0030B8B4219D3F2
:1001400000E0090AC30B8B4201D3CB03C01A524112
:10015000830B8B4201D38B03C01A5241430B8B425A
:1001600001D34B03C01A5241030B8B4201D30B0343
:10017000C01A5241C30A8B4201D3CB02C01A52416A
:10018000830A8B4201D38B02C01A5241430A8B422D
:1001900001D34B02C01A5241030A8B4201D30B0216
:1001A000C01A5241CDD2C3098B4201D3CB01C01A30
:1001B000524183098B4201D38B01C01A524143093A
:1001C0008B4201D34B01C01A524103098B4201D328
:1001D0000B01C01A5241C3088B4201D3CB00C01A95
:1001E000524183088B4201D38B00C01A524143080D
:1001F0008B4201D34B00C01A5241411A00D2014632
:10020000524110467047FFE701B5002000F006F8A4
:1002100002BDC0460029F7D076E770477047C04658
:10022000002B11D1002A0FD1002900D1002802D0C3
:100230000021C943080007B4024802A140180290F7
:1002400003BDC046D9FFFFFF03B4684601B502985D
:1002500000F006F8019B9E4602B00CBC7047C046F9
:10026000F0B557464E464546DE46E0B504000D0063
:100270009246994683B08B4230D82DD0494650469D
:1002800000F0BAF829000600200000F0B5F8331A93
:100290009846203B9B4633D45A46534693404246A9
:1002A0001F00534693401E00AF423AD8AF4200D1E0
:1002B00078E05B46A41BBD41002B00DA75E000220C
:1002C00000230092019301235A4693400193012396
:1002D00042469340009328E08242CFD90022002377
:1002E000009201930C9B002B01D01C605D60009874
:1002F000019903B0F0BCBB46B246A946A046F0BD8A
:10030000424620239B1A5246DA40414613004A4691
:100310008A40170042461F43534693401E00AF4297
:10032000C4D900220023009201934346002BD9D068
:10033000FB0772081A4346467B080EE0AB4201D128
:10034000A2420CD8A41A9D41012024196D4100211C
:10035000013E24184D41002E06D0AB42EED9013E9D
:1003600024196D41002EF8D1009801995B460019BF
:100370006941002B24DB2B005A464446D3402A0017
:10038000E2401C005B461500002B2ADB26009E4045
:10039000330026004746BE403200801A9941009043
:1003A00001919FE7A342BCD883E742462023002166
:1003B0009B1A0022009101920122DA40019286E705
:1003C000424620239B1A2A0046469A402300F340C7
:1003D000444613432A00E2401C005B461500002BF4
:1003E000D4DA42462F002023260097409B1ADE4095
:1003F0003B003343CDE7C04610B5002903D100F0E0
:1004000007F8203002E0080000F002F810BDC046F6
:100410001C2101231B04984201D3000C10391B0A34
:10042000984201D3000A08391B09984201D30009F8
:10043000043902A2105C40187047C046040302024F
:100440000101010100000000000000000023C25C67
:100450000133002AFBD1581E7047000090B585B0CB
:1004600000AFF860B9601900BB1D1A803B1D0A1C63
:100470001A80BB1D1A8880235B009A4202D901238F
:100480005B420DE0FB681C69BB1D1B88064A944655
:10049000634499B23B1D1B88BA68A620A04703009D
:1004A0001800BD4605B090BD0820000080B584B09E
:1004B00000AF786039607B6818330B22BA181100DE
:1004C000180000F087F80300FB60FB68002B01D0E8
:1004D000FB6832E00B217B181B7801221340DAB253
:1004E0003B681A707B181B785B10DBB2012213404B
:1004F000DAB23B685A707B181B789B10DBB2012282
:100500001340DAB23B689A707B181B781B11DBB280
:1005100001221340DAB23B68DA707B181B785B115A
:10052000DBB201221340DAB23B681A717B181B78E8
:100530009B09DAB23B685A7100231800BD4604B02B
:1005400080BD80B582B000AF786039607B681833B9
:100550003A681100180000F025F803001800BD46A5
:1005600002B080BDF0B585B000AFF86008007A60D9
:1005700019000A26BB19021C1A8008257B190A1CBF
:100580001A80FB685C68FB6898687B191D887A682C
:10059000BB1919882B00A04703001800BD4605B001
:1005A000F0BD000080B582B000AF786039603A6875
:1005B000074978680123FFF7D5FF031E02D0012306
:1005C0005B4200E000231800BD4602B080BDC0467B
:1005D0000720000080B582B000AF786039603A68CB
:1005E000074978680123FFF7BDFF031E02D00123EE
:1005F0005B4200E000231800BD4602B080BDC0464B
:100600000620000080B584B000AF0200FB1D1A7008
:1006100014E00F23FB1800221A7005E00F217B184D
:100620001A787B1801321A700F23FB181B78002BE5
:10063000F4D0FB1D1A78FB1D013A1A70FB1D1B78C4
:10064000002BE6D1C046C046BD4604B080BD80B593
:1006500082B000AF78607B68180000F0E5FBC04610
:10066000BD4602B080BD80B584B000AF0200FB1D66
:100670001A700120FFF7C6FF0F23FB1800221A7023
:1006800035E0A023DB0500224021180000F09FFE8A
:100690000120FFF7B7FFFB1D1B785BB2002B07DAC9
:1006A000A023DB0501222021180000F090FE06E0C7
:1006B000A023DB0500222021180000F088FEFA1D8F
:1006C000FB1D1B78DB1813700120FFF79BFFA02395
:1006D000DB0501224021180000F079FE0120FFF720
:1006E00091FF0F217B181A787B1801321A700F23A3
:1006F000FB181B78072BC4D9C046C046BD4604B0C2
:1007000080BD80B582B000AF00237B6000237B609A
:1007100011E080235A00A023DB051100180000F02F
:1007200039FE031E01D101230BE00A20FFF78FFFE2
:100730007B6801337B607A68C8235B009A42E8D308
:1007400000231800BD4602B080BD000080B582B015
:1007500000AF0200FB1D1A70A023DB0500228021E0
:10076000180000F034FE0B4B00220121180000F0AD
:100770002EFEFB1D1B781800FFF775FFA023DB057D
:1007800001228021180000F022FEC046BD4602B0C2
:1007900080BDC0460004005080B582B000AF0200AA
:1007A000FB1D1A70BB1D0A1C1A70FFF7AAFFA023BD
:1007B000DB0500228021180000F009FE104B00220A
:1007C0000121180000F003FEFB1D1B781800FFF745
:1007D0004AFF0B4B01220121180000F0F8FDBB1D60
:1007E0001B781800FFF73FFFA023DB0501228021C3
:1007F000180000F0ECFDC046BD4602B080BDC0460A
:100800000004005090B585B000AF78600A00FB1C72
:100810001A700F243B1900221A707B68BB60A0235A
:10082000DB0500228021180000F0D1FD1C4B0022C6
:100830000121180000F0CBFDBB681B781800FFF702
:1008400012FFBB680133BB60154B01220121180068
:1008500000F0BDFD3B1900221A700DE0BB681B784B
:100860001800FFF700FFBB680133BB600F217B1846
:100870001A787B1801321A700F23FB181A78FB1CA8
:100880001B78013B9A42E9DBA023DB050122802192
:10089000180000F09CFDC046BD4605B090BDC046A6
:1008A0000004005080B586B000AFB9607A600F21B7
:1008B0007B18021C1A7000237B6100233B617B18AC
:1008C0001B7807221340DBB2002B07D07B181B7864
:1008D00007229343DAB27B1808321A700F22BB1832
:1008E000BA181278D2081A70C04680235A00A02382
:1008F000DB051100180000F04DFD0300012BF4D0C2
:10090000FFF7FFFEA023DB0500228021180000F086
:100910005EFD1D4B00220121180000F058FD24202F
:10092000FFF7A1FE184B01220121180000F04FFD36
:1009300000237B6118E000233B610CE07B681B789F
:10094000DB43DBB21800FFF78EFE7B6801337B6070
:100950003B6901333B610F23FB181B783A699A42CC
:10096000ECDB7B6901337B617B69BA689A42E2D830
:10097000A023DB0501228021180000F028FDC046DD
:10098000BD4606B080BDC0460004005080B584B0AE
:1009900000AF39601100FB1D021C1A70BB1D0A1C40
:1009A0001A700023FB600023BB60FB1D1B7807222D
:1009B0001340DBB2002B07D0FB1D1B7807229343AB
:1009C000DAB2FB1D08321A70FB1DFA1D1278D2082C
:1009D0001A70FFF796FEA023DB0500228021180085
:1009E00000F0F5FC194B00220121180000F0EFFC8B
:1009F0002420FFF738FE154B01220121180000F0DA
:100A0000E6FC0023FB6012E00023BB6007E0BB1D97
:100A10001B781800FFF727FEBB680133BB60FB1D86
:100A20001B78BA689A42F2DBFB680133FB60FB6813
:100A30003A689A42E8D8A023DB05012280211800F9
:100A400000F0C5FCC046BD4604B080BD00040050A7
:100A500080B500AF1220FFF779FE02E00A20FFF711
:100A6000F6FD80235A00A023DB051100180000F0DA
:100A700091FC0300012BF1D0214B04211800FFF75A
:100A8000C1FE204B02211800FFF7BCFE1E4B0321C4
:100A90001800FFF7B7FE1D4B05211800FFF7B2FE47
:100AA0001B4B02211800FFF7ADFE1A4B0221180064
:100AB000FFF7A8FE184B02211800FFF7A3FE202025
:100AC000FFF744FE154B02211800FFF79BFE144B65
:100AD00003211800FFF796FE02E00A20FFF7B7FD9A
:100AE00080235A00A023DB051100180000F052FCFF
:100AF0000300012BF1D0C046C046BD4680BDC046B4
:100B00000000002004000020080000200C0000204D
:100B100014000020180000201C00002020000020ED
:100B20002400002080B500AF1D4B002201211800D9
:100B300000F04DFCA023DB0500228021180000F00E
:100B400046FC174B01220221180000F040FCC8208F
:100B5000FFF77DFD124B00220221180000F037FC48
:100B60000A20FFF774FD0E4B01220221180000F04D
:100B70002EFCC820FFF76BFD02E00A20FFF767FD9F
:100B800080235A00A023DB051100180000F002FCAE
:100B90000300012BF1D0FFF75BFFC046BD4680BDCF
:100BA0000004005080B500AFF7212220FFF7F4FDCC
:100BB0002020FFF7CBFDC046BD4680BD80B500AF0D
:100BC000FFF7B0FFC046BD4680BD80B582B000AF24
:100BD00078600A00FB1C1A70FB1C1B78002B05D1E7
:100BE000FF22C821C820FFF7D1FE05E07B681A006C
:100BF000C821C820FFF756FEFFF7D4FFC046BD4608
:100C000002B080BD90B585B000AFF860B960190042
:100C1000BB1D1A803B1D0A1C1A803B1D1C88BB1D76
:100C20001A88B96804482300FFF718FC030018006D
:100C3000BD4605B090BDC0463C14002080B582B0D2
:100C400000AF786039603A68044B11001800FFF774
:100C50002DFC03001800BD4602B080BD3C140020EE
:100C600080B582B000AF786039603A68044B1100FB
:100C70001800FFF766FC03001800BD4602B080BDF7
:100C80003C14002080B500AF00F004F8C046BD461B
:100C900080BD000080B500AF2C4B1B78DBB2012B70
:100CA00051D12B4B19000020FFF7C8FF284B9B7830
:100CB000012B45D1274B19000020FFF7D1FF254B11
:100CC0001B8801339AB2234B1A80224B1B88032BBB
:100CD00003D1214B00221A6021E01E4B1B88C82B38
:100CE0001DD1A023DB0501220421180000F06FFBB9
:100CF000194B1B681A00194BD118C8230022002079
:100D0000FFF780FF144B1B68C8331A00124B1A60A0
:100D1000A023DB0500220421180000F058FB0E4B35
:100D20001B680F4A93420BD10B4B00221A600B4BEE
:100D300001211800FFF749FF0A4B180000F074F872
:100D4000024B00221A70C046BD4680BD6E140020C2
:100D5000681400206414002070140020300000206B
:100D600088130000B80B000080B582B000AFFB1DF7
:100D700000221A700B4B1A680A4B40210A431A6072
:100D8000002000F011F8031E03D0FB1D01221A7091
:100D900001E002F027FCFB1D1B781800BD4602B0E5
:100DA00080BDC0460020024090B585B000AF78609D
:100DB0000F243B1900221A700F4B1B68FA22910076
:100DC0001800FFF7A1F90300180000F018F9031E3E
:100DD00003D03B1901221A7006E0796801235B42B7
:100DE0000022180000F0E6F80F23FB181B7818000B
:100DF000BD4605B090BDC046B813002080B500AF19
:100E0000034B1B685A1C024B1A60C046BD4680BD8E
:100E10007414002080B500AF024B1B681800BD465B
:100E200080BDC0467414002080B584B000AF7860E7
:100E3000FFF7F0FF0300BB607B68FB60FB680133DA
:100E400002D0FB680133FB60C046FFF7E3FF0200FE
:100E5000BB68D31AFA689A42F7D8C046C046BD4666
:100E600004B080BD80B582B000AF0200FB1D1A70D7
:100E7000FB1D1B781A001F231A40044B01219140CF
:100E80000A001A60C046BD4602B080BD00E100E025
:100E900090B583B000AF02003960FB1D1A70FB1DD6
:100EA0001B787F2B32D92F4AFB1D1B7819000F238B
:100EB0000B40083B9B0806339B00D31804331B6888
:100EC000FA1D1278110003220A40D200FF2191403E
:100ED0000A00D2431A4011003B689B01FF221A40CE
:100EE000FB1D1B78180003230340DB009A401D48BC
:100EF000FB1D1B781C000F232340083B9B080A4363
:100F000006339B00C31804331A6027E0164AFB1D02
:100F10001B785BB29B08C0339B009B58FA1D12786C
:100F2000110003220A40D200FF2191400A00D2435F
:100F30001A4011003B689B01FF221A40FB1D1B78E1
:100F4000180003230340DB009A400748FB1D1B7871
:100F50005BB29B080A43C0339B001A50C046BD4693
:100F600003B090BD00ED00E000E100E080B582B08C
:100F700000AF78607B685A1E80235B049A4201D3DD
:100F8000012310E00A4B7A68013A5A6001235B4260
:100F900003211800FFF77CFF054B00229A60044BE9
:100FA00007221A6000231800BD4602B080BDC0466B
:100FB00010E000E080B584B000AFB9607A600F2126
:100FC0007B18021C1A70BA687B181B785BB2110080
:100FD0001800FFF75DFFC046BD4604B080BD80B578
:100FE00082B000AF0200FB1D1A70FB1D1B785BB2C4
:100FF0001800FFF737FFC046BD4602B080BD80B580
:1010000082B000AF78607B681800FFF7AFFF030085
:101010001800BD4602B080BD80B584B000AF7860D6
:101020000F217B1800221A707B6825229B5CDBB2A3
:10103000022B06D07B680422DA637B1801221A7027
:101040002AE07B681B681A687B681B680E218A434C
:101050001A607B681B681A687B681B6801218A43D9
:101060001A607B685B6C1C221A407B681B6C012138
:1010700091400A005A607B682522012199547B68BF
:101080002422002199547B689B6B002B04D07B6841
:101090009B6B7A68100098470F23FB181B78180089
:1010A000BD4604B080BD000080B586B000AF78605A
:1010B000396000237B610023FB6000233B614FE12B
:1010C0003B681B6801217A6991400A001340FB606C
:1010D000FB68002B00D140E13B685B68022B03D02A
:1010E0003B685B68122B23D17B69DA087B68083286
:1010F0009200D3583B617B69072213409B000F226B
:101100009A401300DA433B6913403B613B681A691C
:101110007B6907210B409B009A4013003A691343F7
:101120003B617B69DA087B68083292003969D150EB
:101130003B685B68012B0BD03B685B68022B07D0D8
:101140003B685B68112B03D03B685B68122B30D186
:101150007B689B683B617B695B0003229A401300BC
:10116000DA433B6913403B613B68DA687B695B00AB
:101170009A4013003A6913433B617B683A699A606D
:101180007B685B683B6101227B699A401300DA430C
:101190003B6913403B613B685B681B0901221A40B5
:1011A0007B699A4013003A6913433B617B683A6953
:1011B0005A607B681B683B617B695B0003229A4035
:1011C0001300DA433B6913403B613B685B680322D1
:1011D0001A407B695B009A4013003A6913433B61F4
:1011E0007B683A691A607B68DB683B617B695B00FE
:1011F00003229A401300DA433B6913403B613B688A
:101200009A687B695B009A4013003A6913433B611B
:101210007B683A69DA603B685A6880235B05134053
:1012200000D19AE0544B5A6B534B01210A435A6345
:10123000524A7B699B0802339B009B583B617B6948
:10124000032213409B000F229A401300DA433B69AC
:1012500013403B617A68A023DB059A4219D07B6872
:10126000474A934213D07B68464A93420DD07B682D
:10127000454A934207D07B68444A934201D10523F3
:1012800008E0062306E0032304E0022302E0012332
:1012900000E000237A6903210A40920093403A69F2
:1012A00013433B6135497B699B0802339B003A69D4
:1012B0005A50374B1B683B61FB68DA433B6913406C
:1012C0003B613B685A6880235B02134003D03A6954
:1012D000FB6813433B612E4B3A691A602C4B5B68E9
:1012E0003B61FB68DA433B6913403B613B685A68EA
:1012F00080239B02134003D03A69FB6813433B6190
:10130000234B3A695A60224B9B683B61FB68DA4386
:101310003B6913403B613B685A6880235B03134081
:1013200003D03A69FB6813433B61194B3A699A60F1
:10133000174BDB683B61FB68DA433B6913403B6159
:101340003B685A6880239B03134003D03A69FB68CB
:1013500013433B610E4B3A69DA607B6901337B6171
:101360003B681A687B69DA40131E00D0A8E6C046C5
:10137000C046BD4606B080BD0010024000000140DE
:101380000004005000080050000C0050001C0050E9
:101390000004014080B584B000AF78600A00BB1C37
:1013A0001A807B681B69BA1C1288134004D00F2373
:1013B000FB1801221A7003E00F23FB1800221A7099
:1013C0000F23FB181B781800BD4604B080BD80B504
:1013D00082B000AF786008001100BB1C021C1A80AC
:1013E0007B1C0A1C1A707B1C1B78002B04D0BB1CB6
:1013F0001A887B689A6103E0BB1C1A887B689A6232
:10140000C046BD4602B080BDB0B58AB000AF7860BE
:101410007B68002B02D1012300F056FBCD4BDB682B
:101420000C2213403B62CB4BDA6880235B021340F3
:10143000FB617B681B680122134000D17CE03B6AA2
:10144000082B07D03B6A0C2B11D1FA6980235B0271
:101450009A420CD1BF4B1A6880239B02134000D1E3
:1014600069E07B685B68002B65D101232CE37B6816
:101470005A6880235B029A4207D1B64B1A68B54B73
:10148000802149020A431A6027E07B685A68A0233A
:10149000DB029A420ED1AF4B1A68AE4B8021C902D3
:1014A0000A431A60AB4B1A68AA4B802149020A43CF
:1014B0001A6012E0A74B1A68A64BA7490A401A60A7
:1014C000A44B1A6880235B021340FB60FB68A14BAE
:1014D0001A68A04BA1490A401A607B685B68002B20
:1014E00014D0FFF797FC0300BB6108E0FFF792FC04
:1014F0000200BB69D31A642B01D90323E4E2954BA4
:101500001A6880239B021340F0D015E0FFF782FC9D
:101510000300BB6108E0FFF77DFC0200BB69D31A42
:10152000642B01D90323CFE28A4B1A6880239B02E4
:101530001340F0D100E0C0467B681B6802221340D4
:1015400000D18AE07B68DB687B613B6A042B05D0B5
:101550003B6A0C2B3DD1FB69002B3AD17D4B1B68BC
:101560000422134004D07B69002B01D10123ABE29C
:10157000784B5B687A4A134019007B681B691A0232
:10158000744B0A435A60734B1B680922934319003A
:10159000704B7A690A431A6000F0C6FB01006D4B7C
:1015A000DB681B090F2213406E4AD35C0A00DA4045
:1015B0006D4B1A6013257C190020FFF7F5FB030023
:1015C00023702A00BB181B78002B46D0BB181B7851
:1015D0007AE27B69002B27D05E4B1B68092293437C
:1015E00019005C4B7A690A431A60FFF713FC030089
:1015F000BB6108E0FFF70EFC0200BB69D31A022BA7
:1016000001D9032360E2534B1B6804221340F1D03D
:10161000504B5B68524A134019007B681B691A02E1
:101620004C4B0A435A6018E04A4B1A68494B012157
:101630008A431A60FFF7EEFB0300BB6108E0FFF787
:10164000E9FB0200BB69D31A022B01D903233BE259
:10165000404B1B6804221340F1D17B681B681022A9
:10166000134000D19EE03B6A002B3FD1394B1A68F2
:1016700080239B00134005D07B689B69002B01D120
:10168000012321E2334B5B68384A134019007B6821
:101690001A6A304B0A435A602E4B5B681B02190AC8
:1016A0007B68DB691A062B4B0A435A607B681B6A0E
:1016B0005B0B0133802212029A40264BDB681B0928
:1016C0000F210B402749CB5CDA40274B1A601325CA
:1016D0007C190020FFF768FB030023702A00BB1869
:1016E0001B78002B5ED0BB181B78EDE17B689B69F3
:1016F000002B3DD0174B1A68164B802149000A4336
:101700001A60FFF787FB0300BB6108E0FFF782FB6D
:101710000200BB69D31A022B01D90323D4E10D4B7C
:101720001A6880239B001340F0D00A4B5B680F4A75
:10173000134019007B681A6A064B0A435A60054B2E
:101740005B681B02190A7B68DB691A06014B0A43B6
:101750005A6027E000100240FFFFFEFFFFFFFBFF83
:10176000FFE0FFFFFC400008B8130020FF1FFFFF51
:10177000BE4B1A68BD4BBE490A401A60FFF74AFBD0
:101780000300BB6108E0FFF745FB0200BB69D31A09
:10179000022B01D9032397E1B44B1A6880239B00E5
:1017A0001340F0D17B681B680822134036D07B6859
:1017B0005B69002B19D0AD4B1A6DAC4B01210A436C
:1017C0001A65FFF727FB0300BB6108E0FFF722FB68
:1017D0000200BB69D31A022B01D9032374E1A34B86
:1017E0001B6D02221340F1D018E0A04B1A6D9F4BE5
:1017F00001218A431A65FFF70DFB0300BB6108E076
:10180000FFF708FB0200BB69D31A022B01D903239F
:101810005AE1964B1B6D02221340F1D17B681B6885
:101820000422134000D1AEE027203B1800221A709A
:101830008E4B9A6B80235B05134009D18B4B9A6BBF
:101840008A4B802149050A439A633B1801221A708A
:10185000884B1A6880235B0013401AD1854B1A68A5
:10186000844B802149000A431A60FFF7D3FA030032
:10187000BB6108E0FFF7CEFA0200BB69D31A642B04
:1018800001D9032320E17B4B1A6880235B001340BE
:10189000F0D07B689A6880235B009A4207D1734B33
:1018A0001A6D724B802149000A431A6531E07B684A
:1018B0009B68002B0CD16D4B1A6D6C4B6C490A4028
:1018C0001A656A4B1A6D694B6B490A401A6520E02C
:1018D0007B689A68A023DB009A420ED1634B1A6D95
:1018E000624B8021C9000A431A65604B1A6D5F4B39
:1018F000802149000A431A650BE05C4B1A6D5B4B73
:101900005B490A401A65594B1A6D584B5A490A40AF
:101910001A657B689B68002B15D0FFF77BFA0300E4
:10192000BB6109E0FFF776FA0200BB69D31A534A9C
:10193000934201D90323C7E04C4B1A6D80239B00CF
:101940001340EFD014E0FFF765FA0300BB6109E034
:10195000FFF760FA0200BB69D31A484A934201D9E3
:101960000323B1E0414B1A6D80239B001340EFD15C
:101970002723FB181B78012B05D13C4B9A6B3B4B63
:101980003F490A409A637B685B6A002B00D19AE06A
:101990003B6A0C2B64D07B685B6A022B45D1334BCE
:1019A0001A68324B37490A401A60FFF733FA0300CE
:1019B000BB6108E0FFF72EFA0200BB69D31A022BC5
:1019C00001D9032380E0294B1A6880239B0413402C
:1019D000F0D1264BDB682C4A134019007B689A6AC9
:1019E0007B68DB6A1A437B681B6B1A431F4B0A43F5
:1019F000DA601E4B1A681D4B802149040A431A60A5
:101A0000FFF708FA0300BB6108E0FFF703FA0200E2
:101A1000BB69D31A022B01D9032355E0134B1A6873
:101A200080239B041340F0D04DE0104B1A680F4BFD
:101A300014490A401A60FFF7EDF90300BB6108E0A2
:101A4000FFF7E8F90200BB69D31A022B01D903237F
:101A50003AE0064B1A6880239B041340F0D132E031
:101A60007B685B6A012B11D101232DE0001002403D
:101A7000FFFEFFFF00700040FFFBFFFF8813000028
:101A8000FFFFFFEFFFFFFFFEFFFF02FF104BDB68D2
:101A9000FB61FA6980235B021A407B689B6A9A4269
:101AA0000FD1FA69F0239B031A407B68DB6A9A42E4
:101AB00007D1FA69C0231B041A407B681B6B9A424A
:101AC00001D0012300E000231800BD460AB0B0BDDC
:101AD00000100240B0B584B000AF786039607B6818
:101AE000002B01D101230DE1884B1B68012213401B
:101AF0003A689A4211D9854B1B6801229343190019
:101B0000824B3A680A431A60804B1B6801221340DB
:101B10003A689A4201D00123F4E07B681B680222F4
:101B2000134009D07A4BDB68F022934319007B689D
:101B30009A68774B0A43DA607B681B68012213407E
:101B400000D189E07B685B68022B07D1704B1A6873
:101B500080239B02134020D10123D3E07B685B6884
:101B6000032B07D16A4B1A6880239B04134014D1BE
:101B70000123C7E07B685B68012B06D1644B1B68BF
:101B80000422134009D10123BCE0614B1A68802371
:101B90009B00134001D10123B4E05D4BDB680322BD
:101BA000934319007B685A68594B0A43DA60FFF780
:101BB00031F90300FB607B685B68022B11D109E0FF
:101BC000FFF728F90200FB68D31A524A934201D961
:101BD000032397E04E4BDB680C221340082BEFD118
:101BE0003AE07B685B68032B11D109E0FFF712F93B
:101BF0000200FB68D31A474A934201D9032381E0CC
:101C0000434BDB680C2213400C2BEFD124E07B68A4
:101C10005B68012B1BD109E0FFF7FCF80200FB68B1
:101C2000D31A3C4A934201D903236BE0384BDB685B
:101C30000C221340042BEFD10EE0FFF7EBF802006B
:101C4000FB68D31A334A934201D903235AE0304B3D
:101C5000DB680C221340F0D12C4B1B68012213408F
:101C60003A689A4211D2294B1B680122934319000A
:101C7000264B3A680A431A60244B1B680122134022
:101C80003A689A4201D001233CE07B681B68042239
:101C9000134009D01E4BDB681F4A134019007B68B4
:101CA000DA681B4B0A43DA607B681B680822134022
:101CB0000AD0174BDB68194A134019007B681B696F
:101CC000DA00134B0A43DA6000F02EF80100104BE3
:101CD000DB681B090F221340114AD35C0A00DA406B
:101CE000104B1A600B257C190020FFF75DF80300EC
:101CF00023702A00BB181B78002B02D0BB181B785E
:101D000000E000231800BD4604B0B0BD0020024032
:101D10000010024088130000FFF8FFFFFFC7FFFF1D
:101D2000FC400008B813002080B586B000AF3C4BE3
:101D3000DB68FB60FB680C2213400C2B13D05CD8D3
:101D4000042B02D0082B0BD057E0354B1B68102218
:101D5000134002D0334B3B615DE0334B3B615AE0B3
:101D6000324B3B6157E0FB689B0C0F221340304A1B
:101D7000D35CBB60FB689B0D0322134001337B6087
:101D8000274BDA6880235B0213400FD0B9680A0042
:101D90005201521A93019B1ADB005B185B027968AF
:101DA0001800FEF7B1F903007B6123E01C4B1B68B0
:101DB000102213400FD0B9680A005201521A930141
:101DC0009B1ADB005B181B0279681800FEF79CF970
:101DD00003007B610EE0B9680A005201521A9301B8
:101DE0009B1ADB005B189B0279681800FEF78CF9E0
:101DF00003007B617B693B610DE0094B5B685B0B1A
:101E0000072213403B603B680133802212029A4054
:101E100013003B61C0463B691800BD4606B080BD5B
:101E20000010024000093D000024F40000127A0076
:101E30001441000880B500AF024B1B681800BD4676
:101E400080BDC046B813002080B500AFFFF7F2FF99
:101E50000100064BDB681B0A07221340044AD35CCF
:101E6000D9400B001800BD4680BDC046001002409E
:101E70000C41000880B500AFFFF7DCFF0100064B06
:101E8000DB68DB0A07221340044AD35CD9400B000D
:101E90001800BD4680BDC046001002400C4100083D
:101EA00080B586B000AF78607B681B682022134045
:101EB00000D1C6E017203B1800221A70894B9A6B9C
:101EC00080235B05134009D1864B9A6B854B80219B
:101ED00049050A439A633B1801221A70824B1A681B
:101EE00080235B0013401AD17F4B1A687E4B802100
:101EF00049000A431A60FEF78DFF03003B6108E0CA
:101F0000FEF788FF02003B69D31A642B01D9032333
:101F1000E3E0754B1A6880235B001340F0D0714BEF
:101F20001A68C0239B031340FB607B685A68C02378
:101F30009B031340FA689A4213D07B685A68C02307
:101F40009B021A40C0239B029A420AD1654B1A6831
:101F500080239B021A4080239B029A4201D10123D5
:101F6000BBE0604B1A6DC0239B021340FB60FB6813
:101F7000002B3BD07B685A68C0239B021340FA6851
:101F80009A4233D07B681B68202213402ED0554BD9
:101F90001B6D564A1340FB60524B1A6D514B80210A
:101FA00009030A431A654F4B1A6D4E4B50490A40BC
:101FB0001A654C4BFA681A65FA6880235B00134077
:101FC00014D0FEF727FF03003B6109E0FEF722FF74
:101FD00002003B69D31A474A934201D903237CE0AC
:101FE000404B1A6D80239B001340EFD07B685A68EA
:101FF000C0239B021A40C0239B029A420CD1394B4A
:102000001B683D4A134019007B685A68C0239B0334
:102010001A40344B0A431A60324B196D7B685A6878
:10202000C0239B021A402F4B0A431A651723FB1843
:102030001B78012B05D12B4B9A6B2A4B2F490A4059
:102040009A637B681B680122134009D0254BDB6C27
:102050000322934319007B689A68224B0A43DA648F
:102060007B681B680222134009D01E4BDB6C0C22DC
:10207000934319007B68DA681A4B0A43DA647B6879
:102080001B680422134009D0164BDB6C1C4A13401A
:1020900019007B681A69134B0A43DA647B681B6872
:1020A0000822134009D00F4BDB6C164A134019006D
:1020B0007B685A690B4B0A43DA647B681B68802291
:1020C000134009D0074BDB6C0F4A134019007B68A3
:1020D0009A69044B0A43DA6400231800BD4606B02F
:1020E00080BDC0460010024000700040FFFFFCFFB2
:1020F000FFFFF7FF88130000FFFFCFFFFFFFFFEF99
:10210000FFF3FFFFFFCFFFFFFFFFF3FF80B582B0BC
:1021100000AF78607B68002B01D1012344E07B682D
:102120005B6F002B07D17B687022002199547B687C
:10213000180001F07BFB7B6824225A677B681B68D0
:102140001A687B681B6801218A431A607B68180043
:1021500000F0C4FA0300012B01D1012324E07B68C5
:102160005B6A002B03D07B68180000F0B3FD7B682E
:102170001B685A687B681B680D490A405A607B6877
:102180001B689A687B681B682A218A439A607B686F
:102190001B681A687B681B6801210A431A607B6808
:1021A000180000F04BFE03001800BD4602B080BDD1
:1021B000FFB7FFFF80B58AB002AFF860B9603B603F
:1021C000BB1D1A80FB685B6F202B00D094E0BB68BE
:1021D000002B03D0BB1D1B88002B01D101238CE0F9
:1021E000FB689A6880235B019A4209D1FB681B69EE
:1021F000002B05D1BB680122134001D001237CE0F4
:10220000FB6870229B5C012B01D1022375E0FB6807
:10221000702201219954FB680022DA67FB682122B1
:102220005A67FEF7F7FD03007B61FB68BA1D50217A
:1022300012885A52FB68BA1D522112885A52FB6802
:102240009A6880235B019A4208D1FB681B69002BC6
:1022500004D10023FB61BB68BB6103E0BB68FB6189
:102260000023BB612CE07A69F8683B680093130097
:102270000022802100F026FE031E01D003233CE053
:10228000FB69002B0BD1BB691B881A00FB681B681C
:10229000D205D20D9A62BB690233BB6107E0FB69CC
:1022A0001A78FB681B689A62FB690133FB61FB6863
:1022B00052229B5A9BB2013B99B2FB68522299521F
:1022C000FB6852229B5A9BB2002BCCD17A69F868EA
:1022D0003B68009313000022402100F0F3FD031E31
:1022E00001D0032309E0FB6820225A67FB687022B3
:1022F00000219954002300E002231800BD4608B0D5
:1023000080BD000080B584B000AFF860B960BB1D2F
:102310001A80FB689B6F202B00D09FE0BB68002BCE
:1023200003D0BB1D1B88002B01D1012397E0FB6864
:102330009A6880235B019A4209D1FB681B69002BD4
:1023400005D1BB680122134001D0012387E0FB685F
:1023500070229B5C012B01D1022380E0FB6870227C
:1023600001219954FB68BA685A65FB68BA1D582167
:1023700012885A52FB68BA1D5A2112885A52FB68B9
:1023800000221A66FB689A6880235B019A420DD18D
:10239000FB681B69002B04D1FB685C22324999520F
:1023A0002EE0FB685C22FF21995229E0FB689B68C4
:1023B000002B0DD1FB681B69002B04D1FB685C224C
:1023C000FF2199521CE0FB685C227F21995217E0A3
:1023D000FB689A6880235B059A420DD1FB681B69F4
:1023E000002B04D1FB685C227F21995208E0FB6836
:1023F0005C223F21995203E0FB685C220021995244
:10240000FB680022DA67FB6822229A67FB681B6878
:102410009A68FB681B6801210A439A60FB689A6806
:1024200080235B019A4207D1FB681B69002B03D113
:10243000FB680E4A1A6602E0FB680D4A1A66FB68E2
:10244000702200219954FB681B681A68FB681B689E
:10245000902149000A431A60002300E0022318007B
:10246000BD4604B080BDC046FF010000B530000885
:10247000FD2F000880B588B000AF78607B681B68CE
:10248000DB69FB617B681B681B68BB617B681B6841
:102490009B687B61FB690F2213403B613B69002B0A
:1024A00012D1FB69202213400ED0BB6920221340B9
:1024B0000AD07B681B6E002B00D1F5E07B681B6E99
:1024C0007A6810009847EFE03B69002B00D1B8E034
:1024D0007B690122134005D1BA6990235B00134048
:1024E00000D1AEE0FB69012213400ED0BA6980230F
:1024F0005B00134009D07B681B6801221A627B686D
:10250000DB6F01221A437B68DA67FB690222134002
:102510000DD07B690122134009D07B681B68022221
:102520001A627B68DB6F04221A437B68DA67FB69F7
:10253000042213400DD07B690122134009D07B682F
:102540001B6804221A627B68DB6F02221A437B68D5
:10255000DA67FB690822134011D0BB6920221340BF
:1025600003D17B690122134009D07B681B680822D4
:102570001A627B68DB6F08221A437B68DA677B6824
:10258000DB6F002B00D191E0FB69202213400CD0BF
:10259000BB692022134008D07B681B6E002B04D03F
:1025A0007B681B6E7A68100098477B68DB6FFB6066
:1025B0007B681B689B6840221340402B03D0FB685C
:1025C0000822134033D07B68180000F0C5FC7B68FC
:1025D0001B689B6840221340402B23D17B681B68FB
:1025E0009A687B681B6840218A439A607B68DB6E2F
:1025F000002B12D07B68DB6E2F4A9A637B68DB6E00
:102600001800FEF709FD031E19D07B68DB6E9A6B7C
:102610007B68DB6E1800904711E07B68180000F0C3
:1026200055F80CE07B68180000F050F807E07B6874
:10263000180000F04BF87B680022DA6736E0C046ED
:1026400034E0FA6980235B0313400ED07A6980235B
:10265000DB03134009D07B681B68802252031A6297
:102660007B68180000F082FD23E0FB6980221340A4
:102670000DD0BB698022134009D07B685B6E002BB4
:1026800016D07B685B6E7A681000984710E0FB6993
:10269000402213400DD0BB694022134009D07B6813
:1026A000180000F090FC04E0C04602E0C04600E0E4
:1026B000C046BD4608B080BD992F000880B582B0E5
:1026C00000AF7860C046BD4602B080BD80B582B024
:1026D00000AF7860C046BD4602B080BDB0B58EB0D8
:1026E00000AFF8611B2318215B18DB1910221A7048
:1026F0000023FB6213235B18DB1900221A700023EE
:102700007B62FB699A68FB691B691A43FB695B6919
:102710001A43FB69DB6913437B63FB691B681B6816
:10272000C04A13401900FB691B687A6B0A431A60A0
:10273000FB691B685B68BC4A13401900FB69DA68D7
:10274000FB691B680A435A60FB699B697B63FB69F1
:102750001B68B64A934204D0FB691B6A7A6B134329
:102760007B63FB691B689B68B14A13401900FB69D6
:102770001B687A6B0A439A60FB691B68AD4A9342F7
:1027800031D1AD4BDB6C03221340032B1DD023D87A
:10279000022B0CD020D8002B02D0012B0ED01BE036
:1027A0001B2318229B18DB1901221A709CE01B23A3
:1027B00018229B18DB1902221A7095E01B2318229D
:1027C0009B18DB1904221A708EE01B2318229B1819
:1027D000DB1908221A7087E01B2318229B18DB19CB
:1027E00010221A7080E0FB691B68944A934231D131
:1027F000914BDB6C0C2213400C2B1DD023D8082BE3
:102800000CD020D8002B02D0042B0ED01BE01B23B1
:1028100018229B18DB1900221A7065E01B2318226E
:102820009B18DB1902221A705EE01B2318229B18EA
:10283000DB1904221A7057E01B2318229B18DB199E
:1028400008221A7050E01B2318229B18DB19102253
:102850001A7049E0FB691B68744A93423ED1764B7B
:10286000DA6CC0231B011340C0221201934227D00F
:10287000C022120193422AD880221201934211D021
:1028800080221201934222D8002B04D08022D20051
:1028900093420ED01BE01B2318229B18DB19002249
:1028A0001A7021E01B2318229B18DB1902221A70D0
:1028B0001AE01B2318229B18DB1904221A7013E05C
:1028C0001B2318229B18DB1908221A700CE01B230B
:1028D00018229B18DB1910221A7005E01B231822FE
:1028E0009B18DB1910221A70FB691B684F4A934230
:1028F00000D082E01B2318229B18DB191B78082BC1
:102900001DD020DC042B15D01DDC002B02D0022BA7
:1029100005D018E0FFF798FA03007B621AE0464BF7
:102920001B681022134002D0454B7B6212E0454BDE
:102930007B620FE0FFF7F8F903007B620AE0802377
:102940001B027B6206E0132318229B18DB1901226D
:102950001A70C0467B6A002B00D19FE1FB695A6860
:1029600013005B009B187A6A9A4205D3FB695B6887
:102970001B037A6A9A4206D9132318229B18DB1983
:1029800001221A708AE17B6A3B6100237B6139690D
:102990007A690B001B0E100005021D430B001C0280
:1029A000FB695B685B08BB600023FB60B868F96883
:1029B00000196941FB695B683B6000237B603A68F2
:1029C0007B68FDF72DFC02000B001300FB62FA6A26
:1029D000C0239B009A4209D3FA6A80235B039A4280
:1029E00004D2FB691B68FA6ADA6057E113231822E4
:1029F0009B18DB1901221A7050E1FB69DA69802308
:102A00001B029A4200D0BDE01B2318229B18DB1941
:102A10001B78082B00D982E09A000B4BD3181B6857
:102A20009F46C046F369FFEFFFCFFFFF004800401D
:102A3000FFF4FFFF00380140001002400044004056
:102A400000093D000024F400B4400008FFF7FCF941
:102A500003005A00FB695B685B08D218FB695B687E
:102A600019001000FDF750FB03009BB2FB625DE014
:102A7000FFF700FA03005A00FB695B685B08D21895
:102A8000FB695B6819001000FDF73EFB03009BB279
:102A9000FB624BE0894B1B68102213400ED0FB6990
:102AA0005B685B08864A9A18FB695B68190010002E
:102AB000FDF72AFB03009BB2FB6237E0FB695B6812
:102AC0005B08804A9A18FB695B6819001000FDF7E3
:102AD0001BFB03009BB2FB6228E0FFF725F9030014
:102AE0005A00FB695B685B08D218FB695B681900D8
:102AF0001000FDF709FB03009BB2FB6216E0FB69C7
:102B00005B685B08802252029A18FB695B681900B7
:102B10001000FDF7F9FA03009BB2FB6206E01323F5
:102B200018229B18DB1901221A70C046FB6A0F2B72
:102B300021D9FA6A80235B029A421CD2FB6A9AB2BC
:102B40000A2018240319DB190F218A431A80FB6A13
:102B50005B089BB20722134099B20319DB190219D3
:102B6000D21912880A431A80FB691B680219D2190C
:102B70001288DA6092E0132318229B18DB190122D5
:102B80001A708BE01B2318229B18DB191B78082B6B
:102B90006AD89A004C4BD3181B689F46FFF754F92C
:102BA0000200FB695B685B08D218FB695B6819006F
:102BB0001000FDF7A9FA03009BB2FB625BE0FFF790
:102BC00059F90200FB695B685B08D218FB695B6816
:102BD00019001000FDF798FA03009BB2FB624AE06F
:102BE000364B1B68102213400ED0FB695B685B08F4
:102BF000364A9A18FB695B6819001000FDF784FAE1
:102C000003009BB2FB6236E0FB695B685B08304AFD
:102C10009A18FB695B6819001000FDF775FA03004C
:102C20009BB2FB6227E0FFF77FF80200FB695B685D
:102C30005B08D218FB695B6819001000FDF764FAA5
:102C400003009BB2FB6216E0FB695B685B088022B5
:102C500012029A18FB695B6819001000FDF754FA1C
:102C600003009BB2FB6206E0132318229B18DB19BA
:102C700001221A70C046FB6A0F2B09D9FA6A802319
:102C80005B029A4204D2FB691B68FA6ADA6005E0CB
:102C9000132318229B18DB1901221A70FB690022EA
:102CA0001A66FB6900225A66132318229B18DB1947
:102CB0001B781800BD460EB0B0BDC04600100240E3
:102CC00000127A000048E801D840000800093D00E1
:102CD0000024F40080B582B000AF78607B685B6A46
:102CE000012213400BD07B681B685B684A4A134083
:102CF00019007B689A6A7B681B680A435A607B6884
:102D00005B6A022213400BD07B681B685B68434AF6
:102D1000134019007B68DA6A7B681B680A435A60B3
:102D20007B685B6A042213400BD07B681B685B687E
:102D30003B4A134019007B681A6B7B681B680A4387
:102D40005A607B685B6A082213400BD07B681B6863
:102D50005B68344A134019007B685A6B7B681B68B8
:102D60000A435A607B685B6A102213400BD07B6871
:102D70001B689B682C4A134019007B689A6B7B6820
:102D80001B680A439A607B685B6A202213400BD061
:102D90007B681B689B68254A134019007B68DA6BC7
:102DA0007B681B680A439A607B685B6A4022134019
:102DB0001DD07B681B685B681D4A134019007B6847
:102DC0001A6C7B681B680A435A607B681A6C802304
:102DD0005B039A420BD17B681B685B68154A134002
:102DE00019007B685A6C7B681B680A435A607B68D1
:102DF0005B6A802213400BD07B681B685B680E4ABD
:102E0000134019007B689A6C7B681B680A435A6000
:102E1000C046BD4602B080BDFFFFFDFFFFFFFEFFC5
:102E2000FFFFFBFFFF7FFFFFFFEFFFFFFFDFFFFF66
:102E3000FFFFEFFFFFFF9FFFFFFFF7FF80B586B0AB
:102E400002AF78607B680022DA67FDF7E3FF0300DA
:102E5000FB607B681B681B6808221340082B0CD1A1
:102E6000FB68802291037868154A0092002200F0E6
:102E700029F8031E01D003231EE07B681B681B6832
:102E800004221340042B0CD1FB688022D103786804
:102E90000B4A0092002200F015F8031E01D0032314
:102EA0000AE07B6820225A677B6820229A677B6849
:102EB00070220021995400231800BD4604B080BD43
:102EC000FFFFFF0180B584B000AFF860B9603B60E0
:102ED000FB1D1A7029E0BB69013326D0FDF79AFF6C
:102EE00002003B68D31ABA699A4202D3BB69002B2D
:102EF0001BD1FB681B681A68FB681B6815490A40F0
:102F00001A60FB681B689A68FB681B6801218A438A
:102F10009A60FB6820225A67FB6820229A67FB6848
:102F200070220021995403230FE0FB681B68DB69C2
:102F3000BA681340BA68D31A5A425341DBB21A0036
:102F4000FB1D1B789A42C6D000231800BD4604B072
:102F500080BDC0465FFEFFFF80B582B000AF7860E5
:102F60007B681B681A687B681B680A490A401A60FC
:102F70007B681B689A687B681B6801218A439A609A
:102F80007B6820229A677B6800221A66C046BD468D
:102F900002B080BDDFFEFFFF80B584B000AF786077
:102FA0007B689B6AFB60FB685A2200219952FB6890
:102FB000522200219952FB681800FFF787FBC04698
:102FC000BD4604B080BD80B582B000AF78607B683C
:102FD0001B681A687B681B6840218A431A607B68FB
:102FE00020225A677B6800225A667B681800FFF728
:102FF00065FBC046BD4602B080BD000080B584B010
:1030000000AF78600E203B187A685C21525A1A8013
:103010007B689B6F222B3FD17B681B685A6A0C210F
:103020007B181A807B181B88DAB23B181B88D9B230
:103030007B685B6D0A40D2B21A707B685B6D5A1C6C
:103040007B685A657B685A229B5A9BB2013B99B2B6
:103050007B685A2299527B685A229B5A9BB2002B5A
:1030600022D17B681B681A687B681B6810490A407C
:103070001A607B681B689A687B681B6801218A4319
:103080009A607B6820229A677B6800221A667B68B8
:10309000180000F047F907E07B681B689A697B68B5
:1030A0001B6808210A439A61C046BD4604B080BD32
:1030B000DFFEFFFF80B584B000AF78600E203B18C4
:1030C0007A685C21525A1A807B689B6F222B3FD111
:1030D0007B681B685A6A0C217B181A807B685B6DC1
:1030E000BB607B183A181B88128813409AB2BB68E1
:1030F0001A807B685B6D9A1C7B685A657B685A22D4
:103100009B5A9BB2013B99B27B685A2299527B68C9
:103110005A229B5A9BB2002B22D17B681B681A68EB
:103120007B681B6810490A401A607B681B689A68B4
:103130007B681B6801218A439A607B6820229A671A
:103140007B6800221A667B68180000F0EBF807E045
:103150007B681B689A697B681B6808210A439A612F
:10316000C046BD4604B080BDDFFEFFFF80B582B023
:1031700000AF7860C046BD4602B080BD90B589B052
:1031800000AF0C243B19180014231A00002100F092
:10319000CCFD594BDA6A584B04210A43DA62564B8C
:1031A000DB6A04221340BB60BB68534BDA6A524BA4
:1031B00001210A43DA62504BDB6A012213407B6033
:1031C0007B684D4BDA6A4C4B02210A43DA624A4B68
:1031D000DB6A022213403B603B68A023DB05002230
:1031E000F4211800FEF7F3F8444B002203211800E5
:1031F000FEF7EDF83B19C02212021A603B190322B8
:103200005A603B1900229A603B193D4A1900100090
:10321000FDF74AFF3B193B4A1A603B1903225A60EB
:103220003B1900229A603A19A023DB05110018000F
:10323000FDF73AFF3B19F4221A603B1901225A604C
:103240003B1900229A603B190022DA603A19A02348
:10325000DB0511001800FDF727FF3B1908221A6053
:103260003B19294A5A603B1900229A603A19A02357
:10327000DB0511001800FDF717FF3B1903221A6048
:103280003B1901225A603B1900229A603B19002227
:10329000DA603B19194A19001000FDF705FF3B19C8
:1032A000802252001A603B1900225A603B1900220A
:1032B0009A603A19A023DB0511001800FDF7F4FE0F
:1032C0003B1938221A603B1903225A603B1900222D
:1032D0009A603B19094A19001000FDF7E5FE00222B
:1032E00000210620FDF766FE0620FDF778FEC046A9
:1032F000BD4609B090BDC046001002400004005019
:1033000000080050039800000000111080B500AFC5
:10331000034B1800FFF7AEF8C046BD4680BDC0465F
:1033200084140020B0B58AB000AF78607B681B6859
:103330001C4A934232D11C49786864230122FEF76B
:1033400039FF1A4B1B68184A1178194AD154174B88
:103350001B685A1C154B1A60144B1B68154A934284
:1033600016D9124B00221A600C217B18124A31CA5E
:1033700031C331CA31C312781A7079180F486423E7
:103380001922FEF717FF0A4B01211800FDF71DFC5B
:1033900005497B6801221800FEF7B4FFC046BD4610
:1033A0000AB0B0BD00380140781400207C14002021
:1033B0003000002087130000904000088414002093
:1033C00080B584B000AFFDF7CFFC00F077F8FFF7D1
:1033D000D5FEA023DB05012204211800FDF7F7FF2D
:1033E00000F0F4F9FDF7EAFBA023DB05012204213C
:1033F0001800FDF7ECFFFA239B001800FDF714FD01
:10340000284B00211800FDF7E0FBFA239B00180071
:10341000FDF70AFDA023DB05012204211800FDF7BA
:10342000D6FF204B01211800FDF7CFFBFA239B00AC
:103430001800FDF7F9FCA023DB0500220421180089
:10344000FDF7C5FF184B1800FDF7EEFC3B1D174AB2
:10345000116819609188998092799A713B1D1800C2
:10346000FCF7F4FF0300FB60FB689AB2391D1048BB
:103470006423FEF79FFE0F4B1B689B68180000F04B
:1034800015FB002200211B20FDF794FD1B20FDF7FA
:10349000A6FD0949064B01221800FEF733FFFDF790
:1034A000F1FBFCE73000002088130000AC4000086E
:1034B00084140020BC1300207814002090B59BB029
:1034C00000AF34243B19180034231A00002100F007
:1034D0002CFC2023FB18180014231A00002100F0F4
:1034E00024FC3B1D18001C231A00002100F01DFCC9
:1034F000254B1B68254A1A40234B802109010A43AA
:103500001A6021007B1802221A607B180122DA60FF
:103510007B1810221A617B1800225A627B1818004F
:10352000FDF772FF031E01D000F032F820217B1856
:103530000F221A607B1801225A607B1800229A60C1
:103540007B180022DA607B1800221A617B180021A8
:103550001800FEF7BFFA031E01D000F019F83B1D5A
:1035600009221A603B1D00229A603B1D00225A610D
:103570003B1D1800FEF794FC031E01D000F008F874
:10358000C046BD461BB090BD00700040FFE7FFFF86
:1035900080B500AFC046BD4680BD000080B584B098
:1035A00000AF78607B681B681F221340FB6001221C
:1035B000FB689A401300BB60094B5B69BA68134013
:1035C00009D0074BBA685A617B685B68002B02D050
:1035D0007B685B689847C046BD4604B080BDC04666
:1035E0000004014080B500AF074B5A6B064B012128
:1035F0000A435A63044B9A6B034B802149050A43E3
:103600009A63C046BD4680BD0010024080B500AF41
:10361000C046BD4680BD80B500AFFEE780B500AFB7
:10362000C046BD4680BD80B500AFC046BD4680BD2A
:1036300080B500AFFDF7E2FBC046BD4680BD00008F
:1036400080B500AF034B1800FFF7A8FFC046BD468A
:1036500080BDC0462800002080B586B000AFF8606D
:10366000B9607A6000237B610AE000E000BF0100DE
:10367000BB685A1CBA60CAB21A707B6901337B619D
:103680007A697B689A42F0DB7B681800BD4606B019
:1036900080BD80B586B000AFF860B9607A60002365
:1036A0007B6109E0BB685A1CBA601B78180000E017
:1036B00000BF7B6901337B617A697B689A42F1DBE9
:1036C0007B681800BD4606B080BD000080B584B0A0
:1036D00000AF7860114B1B68002B02D10F4B104AD2
:1036E0001A600E4B1B68FB600C4B1A687B68D21883
:1036F0006B469A4207D900F007F903000C221A60C2
:1037000001235B4206E0054B1A687B68D218034B25
:103710001A60FB681800BD4604B080BD801400200C
:103720001815002080B582B000AF786001235B429D
:103730001800BD4602B080BD80B584B000AFF8600F
:10374000B9607A6000231800BD4604B080BD000057
:1037500080B500AF174B1A68164B802149000A4309
:103760001A60144BDA68134B13490A40DA60114BA4
:103770001A68104B11490A401A600E4B9A680D4B9B
:1037800001218A439A600B4B1A680A4B0C490A4084
:103790001A60084BDA68074B0A490A40DA60054BA1
:1037A00000221A61084B802212059A60C046BD466D
:1037B00080BDC046001002400C40FF88F6FFF6FEB8
:1037C000FFFFFBFFFFFF02FF00ED00E080B500AF51
:1037D000144B154A1A60134BE12252025A60114BE6
:1037E00000229A600F4B0022DA600E4B00221A6111
:1037F0000C4B0C225A610B4B00229A61094B0022A0
:10380000DA61084B00221A62064B00225A62054B0D
:103810001800FEF77BFC031E01D0FFF7B9FEC0467F
:10382000BD4680BD841400200038014090B589B0A9
:1038300000AF78600C243B19180014231A000021F3
:1038400000F073FA7B681B68184A93422AD1184B20
:103850005A6B174B8021C9010A435A63144BDA6A29
:10386000134B01210A43DA62114BDB6A0122134038
:10387000BB60BB683B19C022D2001A6021007B18D4
:1038800002225A607B1800229A607B180322DA60B9
:103890007B1804221A617A18A023DB051100180096
:1038A000FDF702FCC046BD4609B090BD003801409E
:1038B000001002400D488546002103E00C4B5B5888
:1038C000435004310B480C4B42189A42F6D30B4A32
:1038D00002E0002313600432094B9A42F9D3FFF748
:1038E00037FF00F0FBF9FFF76BFDFEE7002000203B
:1038F0009441000800000020201400202014002023
:1039000014150020FEE70000014B18687047C04600
:10391000BC130020F7B58B8905000C001A075FD493
:103920004A68002A04DC0A6C002A01DC0020FEBD83
:10393000E76A002FFAD0002280212E682A601A0040
:1039400049010A400B4234D0606DA3895B0706D55C
:103950006368C01A636B002B01D0236CC01A02008D
:10396000216A00232800E76AB847A189431C06D1D1
:103970002B681D2B31D82C4ADA40D3072DD50023D4
:10398000636023692360CB0405D5431C02D12B68F7
:10399000002B00D16065616B2E600029C6D023002A
:1039A0004433994202D0280000F0C8F90020606337
:1039B000BDE701232800216AB847431CC5D12B6805
:1039C000002BC2D01D2B01D0162B01D12E60ADE7EC
:1039D0004023A2891343A381A9E740230B43FAE7BD
:1039E0000F69002FA2D00A680F60D21B019200223B
:1039F0009B0700D14A69A260019B002B00DC95E780
:103A00003A002800019B216AA66AB047002806DC1C
:103A100040230120A28940421343A38187E7019BF1
:103A20003F181B1A0193E7E7010040200B6970B5AE
:103A300005000C00002B02D10025280070BD0028D5
:103A400004D08369002B01D100F0A8F8144B9C42EC
:103A50001BD16C680C22A35E002BEDD0626ED207E6
:103A600004D49B0502D4A06D00F05DF9280021006C
:103A7000FFF750FF636E0500DB07DED4A3899B05CB
:103A8000DBD4A06D00F050F9D7E7064B9C4201D182
:103A9000AC68DFE7044B9C42DCD1EC68DAE7C04657
:103AA000404100086041000820410008010010B5B5
:103AB000002805D1054B0649186800F0EFF810BD45
:103AC000044B1868FFF7B2FFF9E7C04680410008D1
:103AD0002D3A0008BC130020002310B50400036039
:103AE00043608360818143661900C2810361436141
:103AF000836108225C3000F018F9054B2462636290
:103B0000044BA362044BE362044B236310BDC04625
:103B1000253F00084D3F0008853F0008B13F0008E1
:103B200010B5024900F0BAF810BDC0462D3A0008A1
:103B300070B568254A1E55430E002900743100F007
:103B400069F9041E08D000212A00016046600C308B
:103B5000A060683200F0E9F8200070BD10B502489E
:103B600000F0E1F810BDC0460515002010B5024870
:103B700000F0DAF810BDC0460515002010B5024867
:103B800000F0D1F810BDC0460615002010B502485F
:103B900000F0CAF810BDC0460615002013B5040099
:103BA000FFF7ECFFA369002B02D0FFF7EFFF13BD77
:103BB000A364E3642365134B134A1B68A262019359
:103BC000A34201D10123A361200000F01FF860602F
:103BD000200000F01BF8A060200000F017F8002281
:103BE0000421E0606068FFF777FF01220921A068E7
:103BF000FFF772FF02221221E068FFF76DFF012339
:103C0000A361D2E780410008213B0008F8B5070016
:103C1000FFF7A4FF1F4B1E68B369002B02D13000D1
:103C2000FFF7BCFF4836B4687368013B04D53368BE
:103C3000002B22D03668F6E70C22A55E002D1AD1A3
:103C40002000154B5830E360656600F06BF8FFF715
:103C50008DFF2000082229002560A5606560256190
:103C60006561A5615C3000F060F86563A563A564DB
:103C7000E5642000F8BD6834D7E704213800FFF779
:103C800057FF041E3060D5D1FFF770FF0C233B6057
:103C9000EFE7C046804100080100FFFFF7B50400D0
:103CA00006000027019148346368A5680093009BD3
:103CB000013B009304D52468002CF5D13800FEBDEB
:103CC000AB89012B08D90E22AB5E013304D0290049
:103CD0003000019B984707436835E8E770B5002638
:103CE0000C4D0D4C641BA410A64209D1002600F017
:103CF000C3F90A4D0A4C641BA410A64205D170BD3D
:103D0000B300EB5898470136EEE7B300EB589847FD
:103D10000136F2E78C4100088C4100088C41000814
:103D20009041000870477047704703008218934223
:103D300000D1704719700133F9E7000070B5050034
:103D4000002910D00C1F2368002B00DAE41828008B
:103D500000F06EF91D4A1368002B05D163601460F2
:103D6000280000F06DF970BDA34208D921686018E1
:103D70008342F3D118685B6841182160EEE71A00AE
:103D80005B68002B01D0A342F9D911685018A042FA
:103D90000BD120680918501811608342E0D11868CF
:103DA0005B68411811605360DAE7A04202D90C2326
:103DB0002B60D5E721686018834203D118685B68DF
:103DC0004118216063605460CAE7C04608150020AE
:103DD00070B50F4E0D0031680400002902D100F0CB
:103DE0008FF830602900200000F08AF8431C0AD0C8
:103DF0000323C51C9D43A84207D0291A200000F0C8
:103E00007FF8431C01D101256D42280070BDC046DA
:103E10000C150020F7B50322CB1C93430833060092
:103E20001F000C2B32D20C27B94231D8300000F0E1
:103E3000FFF8324D2B681C00002C2ED139003000C9
:103E4000FFF7C6FF0400431C1ED12C682500002D7F
:103E50004AD123682900E3183000019300F050F89C
:103E6000019B834243D123680337FF1A03239F43F7
:103E700008370C2F00D20C2739003000FFF7A8FFBD
:103E8000431C34D02368DF19276013E0002BCBDA02
:103E90000C23002533602800FEBD2268D11B20D4EE
:103EA0000B2917D9E2192760A34211D12A60636850
:103EB000116053603000250000F0C2F807220B3576
:103EC000231D9543EA1A9D42E5D05B1BA350E2E710
:103ED0005A60ECE76268A34201D12A60EAE75A60BF
:103EE000E8E723006468A7E72C006D68AFE70C23C0
:103EF0003000336000F0A4F8CDE7C046081500207C
:103F0000002370B5064D040008002B60FFF7DEFBB0
:103F1000431C03D12B68002B00D0236070BDC0462A
:103F20001015002070B50C000E25495F00F090F8C8
:103F3000002803DB636D1B18636570BDA389024A0B
:103F40001340A381F9E7C046FFEFFFFFF8B51F005C
:103F50008B8905000C001600DB0505D50E23C95E14
:103F60000022022300F050F8A389054A28001340DC
:103F7000A38132000E23E15E3B0000F01FF8F8BD84
:103F8000FFEFFFFF70B50C000E25495F00F03CF815
:103F9000A389421C03D1054A1340A38170BD80222E
:103FA00052011343A3816065F8E7C046FFEFFFFFAE
:103FB00010B50E23C95E00F015F810BD70B50400F1
:103FC000080011001A000023054D2B60FFF761FB6C
:103FD000431C03D12B68002B00D0236070BDC0466A
:103FE00010150020002370B5064D040008002B605A
:103FF000FFF798FB431C03D12B68002B00D02360F4
:1040000070BDC0461015002070B5040008001100F6
:104010001A000023054D2B60FFF78EFB431C03D1D4
:104020002B68002B00D0236070BDC0461015002007
:1040300010B50248FFF777FE10BDC04604150020FA
:1040400010B50248FFF770FE10BDC04604150020F1
:1040500070B50400080011001A000023054D2B6004
:10406000FFF7FAFA431C03D12B68002B00D0236022
:1040700070BDC04610150020F8B5C046F8BC08BC9D
:104080009E467047F8B5C046F8BC08BC9E467047CF
:104090005245434549564544203530303020425939
:1040A000544553210A0A0A0A000000006368656348
:1040B0006B0A00004C2A0008702A0008942A0008A5
:1040C0001E2B0008DA2A00081E2B00081E2B0008F1
:1040D0001E2B0008FE2A00089C2B0008BE2B00089F
:1040E000E02B0008682C0008262C0008682C00082B
:1040F000682C0008682C0008482C0008000000000C
:104100000000000001020304060708090000000087
:1041100001020304030406080C10182030000000FC
:10412000000000000000000000000000000000008F
:10413000000000000000000000000000000000007F
:10414000000000000000000000000000000000006F
:10415000000000000000000000000000000000005F
:10416000000000000000000000000000000000004F
:10417000000000000000000000000000000000003F
:04418000C013002048
:08418400DCC0FF7F0100000018
:04418C00E90000083E
:04419000C100000862
:1041940001C70000110100004400180045C70000D9
:1041A400000000003C0100001880000022B1000063
:1041B4004E0000004FC7000003000006000000008E
:1041C400BFBFBFFFDFB7F8CC6533333324E4CC99EA
:1041D4009996699934D3936338BFFEFEF7FEFF9E28
:1041E400264C999999D9264CC923332665259A5981
:1041F4002C983DF7F7BDBFEF6E3332CCCCCC4B5A85
:10420400632CECC9994D9924CCD9989FDFDFFFFB2F
:10421400FF2799A66666666649B667194CCD30CA0B
:10422400CD2646789F7B7EF7DFDF93CCA9333333EB
:1042340094CC9191533264CE6A7333311867FFFB87
:10424400DDFF7B9BC6999999993333599CCC9B3359
:10425400292624C9AD9827B7EFFF7BFFE5F2664C0A
:10426400CCCD4C944C6632C99AA599A9ACCCD89BB8
:10427400FFBDEFEFEFE5F9A6666664D2CDA66396BF
:1042840064CCB4C99B265258C9FEFF7BFF7DD9FC80
:104294009993333326633318D1365312665253330A
:1042A4003855F7F7DFBDF7C9BE64D9998CB93249DF
:1042B4009A4D8992DB324CD98C9854FDDFFEF7BFBE
:1042C400ECFFA64CCCD48999ACC66A666C9199B3C0
:1042D4000CDAD8CA7F7EEFFFFDE6DF99A466536649
:1042E4004CA6659259254CCC92E662582B3FFBFBB9
:1042F400BEF7D3F7C627332A596653393599996AD5
:10430400666C932D38A49FEFDFFBBFD9FDF2D999DA
:10431400AC93335992CCA666333325599998B4DFBC
:10432400BF7F7FFBC5BFF998CCC5B499249652646E
:10433400A59499994CC6581326FDFBF6EFF5FF7D1D
:1043440026665926CDB664D359994ACCCB266558EE
:10435400CD2FDFEFBFFDD3F7FE6633266A64936D7E
:104364002C96526A6664B33938A4CFF7BDEDDFCA20
:10437400DEFF9999999912480125A4CEA533359960
:104384008A983256FFFFFFFBEBFFDFA4CCC885DF22
:104394006FFED26D293549944CB2D84B57BEF7BF46
:1043A400BF99BBFFE66626FFFFFFFFDA09B3494C5E
:1043B400CB666658D927FBDDFBEFC4FEEF1931BF8E
:1043C400FF69B4CDFFF214DB326B331938A4A7DFD5
:1043D400FF6EFFF67FFF4B1FFF6F08040227FFE409
:1043E40024CB14999998269B7EEFFFBBE36FBCC83E
:1043F400FFFBFF824120205FFFA448D4CCE658593C
:104404004BFBFBF7FEF8FBFE33FFBEFF2010090851
:10441400009FFF7693322558C967EFDFBEF7F67E1B
:10442400FB4FDEF7EF090490422420DFFEACCB35CE
:104434003826337F7EEFDFF67FBCCFFFFFFFC0401F
:104444000410810821BF2A49C998329BDDEFFDFE83
:10445400F1B7FCBF6FDDBF921241249042080753AD
:10446400345A58C989FFFB7FBBFCFDFB3BFB7FEF44
:10447400808010000612424654C726582C65F7BFA8
:10448400F7FFF27FB97EFFFBFEC82492492080101B
:10449400139959A598A335FDEFDF6EF337FCF7B7F1
:1044A400BEFFE201008008248483273258B8999122
:1044B400DFFEFBFFECFF7EFFFDEFEE609048248201
:1044C400002021E4A65B184CCFF77BFEFDFA6DF9C2
:1044D400FEDFFF7E70040200209209099299A54C28
:1044E400663EFFEFDFEFF33FBDBBFEF7DF72212037
:1044F4009208008040DA64A4D832F8DEFF7BBEF470
:10450400FFFDEF77BDFE1892080082482412E5965D
:104514005A9899C07BBDEFF7FCB77DFFFDEF6EDCC9
:104524000082482002010064D35338CF80FFF7FF94
:104534007F7B2DDFFBEFFFFF1E48240209209048FC
:104544007A4C94CC26007DFFBDEFF8CFFFBF7FFFF0
:10455400FF4E020120800804027332B498BC006F3D
:10456400DEFFFDFA53BFEDDFFFFEC3209008248277
:104574004000349A673898007F7BF6DFBB93F7FFDF
:10458400FFFDFFB388048200200BF832C9494C7048
:104594000037FFDFFEFFADFF7F7BDFDFFD812020E3
:1045A40092093FFE3A675A5860007DEF7F77FF25F6
:1045B400EFF7FF777DFFC0090800806C0F8D329301
:1045C4009860007FBDFBFFDFD3BBDEFFFFEFFFFE84
:1045D40000424824E001D998B4AC60003BFFEFEFFF
:1045E4007F99FF7FFEFBFFB7FFD01002018000FC24
:1045F400CD8C98C0003F77BF7DFCE4DFEDFBBFBDF1
:10460400FF7FF604909180403C466B58C0003FDE2B
:10461400FDFFBCCCFDFFFFEEF77BDF7FC004018014
:10462400001F724958C0003BFFF7BBF87377BBFD0E
:10463400FFFFFFFDFFFA012300001C99B338C000FF
:104644003EFBDFEF78697EFFDFBDDBEF77FBFFF03A
:104654000990001E8C9C98F0001FEF7EFFFE2CFF3B
:10466400F7F7F7FF7FFFBFFFFC8180000EE64CCC1D
:104674003C001B7FFBFDFFF2377FFF7FBFDDBEEFFA
:104684007F582300080E3363380F001FDDBFDF7F20
:10469400FB1BEFBDEEEDFFFBFDEF980300000F9950
:1046A400319803C00FF7EEF7FEF1C7FFFFFBFF766B
:1046B400EFBFBFAE11800006499C9800F01EFEFFBC
:1046C400BFF7FC65DF6FBFDFFFFDEFF73FC30000FF
:1046D40007664678003C1FBFFDFEFDFA31FFFEFD74
:1046E400FDEFDFFEFF99E10000079A7318000F0D3C
:1046F400FBDFF7FF7B9A7DDBDF77FB7BBBED993B31
:104704000000072991988001CFEF77BDEFEFCABF72
:10471400FFF7FFBFFFFF7FB01F000007659CD8E0D5
:1047240000FEFFFEEFFBFFE4BFBF7FBEFDEF77DFC0
:104734003003C0000396665878001FB6DFFFFFBE43
:10474400F53BEDFBFBDF7BFDF75800E00003B123F5
:10475400381E000FFFFDBBF6EFF13EFFBEEFF7FE84
:10476400EF7F3200380003CD399807800F7BEFFFCD
:10477400BFFDFB7FBBEFFF7FDFBFDFB0000E00019B
:10478400C9C8D801E007DEFBF7EF7FBCFBFF7BDD88
:10479400FEF7FDFE7000078003B24E58007807FF55
:1047A400BFBFFDFBFCEFF7FF7FDBBDF77B300000F5
:1047B400E00396B338000E06EDEEEFBFEF7EFF7E0A
:1047C400EFF77FFFDFFEB000387001C49198000757
:1047D400C7FFFFFEFBBDFFFDDFBDDFEDEF7EEEE0BB
:1047E40000441801D99CD80000F7DF777FEEFFF76B
:1047F400F7FBFFFEFFBDFBFE6000430001D66458DB
:1048040000003F7DFFEF7FF7BFDEEFEEFBB7FFEF6A
:10481400DCC000C08000E6673800000FF7EEFFF749
:10482400DEEF7FFF7FEFFDEFBF7CC000304000E98B
:104834001998000003FFBFDFBF7FFFFBBDDBBFFF95
:10484400BBFDFAC0001B0001D9C898000003DEFDBF
:10485400FEFBFBDFEFF7FFF7FFFEEFD9C00001809F
:1048640000C64E7800000377F7BFDFEEFDFF7EFD44
:10487400FFFFFFFBFD8203000000F273180000033A
:10488400FDDFFFFF7FFFB7DFDFDFFBFFDEF380002D
:10489400C80000C99198000003BF7B7DBBDBBFFD4E
:1048A400FDF77FDFDFFFFB00008C0000EC9CD800ED
:1048B4000003EFFFF7FFFFFF7FF7BFEFFF7BFFD39F
:1048C4000010270000E66638000001FBB6FFEDB7D4
:1048D4007BF77FFEFFFBFFFFF60000000000D32301
:1048E40098000001FFFFFEFFFFFFDDEEF7DFEFEDB5
:1048F400EFE60000000001D93998000001B76FFB12
:10490400BEFEFEFFBFBDFFFF7F7FE7C000000001CA
:10491400C9CC58000001FFFEFFEFDBF7EFFDEFBF4E
:10492400DDFFF7FFF800000001E65358000001DE48
:10493400FBFDFBFFFF7EF7FFFFFFEDBFDDFE000089
:1049440000019C9B38000000FBDFEF7FBDFBF7DF1D
:1049540076FDF7BFEDC46780000001C9A898000088
:1049640000FF777FDDFFFFBDFDFFFFFEF7FFC039CE
:10497400C0000003CA66D8000000DFFFDBFF77ED4C
:10498400FFBFEF7FEFFDBBC066F000000332565857
:104994000000007DEEFFB7FFFFDBF6FBFDFFDFFF4E
:1049A400C070BC000003A59938000000F7BBFDFDF2
:1049B400EFBEFEFFBFFFFB7FDFC01C9F0000039C18
:1049C400A998000000FFFFDF7FFFF7BFEFEEFBFFBA
:1049D400EDFB801F33C000074326980000007BDFF7
:1049E40077F7BFDFFBBEFFFFF6FF7F800FB1F80153
:1049F4008E74DA700000007EFDFFDEFDFDEFF7DD52
:104A0400FDFFFFF7800CF83DF78E92491800000077
:104A14006FF7BEFFDF77FDFDFFEFDFFFBF801E32C4
:104A24000FFC3E9B35B00003FFFF7FFBF7FFFFBF8A
:104A3400DFBBFFDFE7EF800E30821C7D64CCB0BFAC
:104A4400FFFFF7DEEFDF7FBEF6F7FFDDF61FFF00A7
:104A54000E30208FCD266230FFFDEFFDFBFF7BFD86
:104A6400FBFFFF77F7FD99FF001B9C0827DE999B4E
:104A7400307FBF7F7FFF7DFEFFDF6FBBFFBFC9724B
:104A840073001BFF0200FAE459B06DFBFDF7BFF79A
:104A9400EFFBF7FBFFBFFF32760700187FC090598A
:104AA4002744B0BFDFEFFEF6FFBFFF7EFF77F7FBC3
:104AB400267DBFFBBE85F8041D5936609BFF7EFF33
:104AC400DFDEFDEFDFBDFEFFFC99FFFB6FFFF1BCF6
:104AD400213949B3607FBDF7FDFFFBF7FEFDEFEF22
:104AE400EFE4C9DFC80025FF1F88332649607EF73D
:104AF400FF7F7B7FDFF7F7FF7DFFB327FE0000001A
:104B04000F03C264B24CE09FFFBBF7EFF77FBFDF38
:104B1400BBF7BFCB377C0000000720F06C99B26074
:104B240077DEFFFDFDDFF7EEFEFFBFFE58CFF4405A
:104B3400000001893C734C9B607F77DF7FDFFDFFC2
:104B4400FFBBF6FEFE964DF000000001C00FD266DA
:104B54004CC03BFFFDFF7BBF6FBBEFDFF7BCA53F46
:104B6400C000000000649FCC9364C0DFDEEFFDFF53
:104B7400F7FFFFFF7FDFFE69BF8000000000703F8A
:104B8400A5991AC07F7BFFBFEEFFDEDF7DFB7EF9B8
:104B94009A7FE000000000193FB264D2C03DFF7666
:104BA400FF7FDEFFFDF7EFFBF6567FE000000F808E
:104BB4001C0F9A6694C0F7EFFFFDFDFBBF77DFBDC6
:104BC400DF7965FF8360000FE00C8FCB9935C03F20
:104BD400BDDF7FEFBFFFFEFEFFF7F929F707E00017
:104BE40000600623E45365806DFFF7DFBBFDDBDF68
:104BF400FBF7BEF6C9FE1EB80000600306754C99AB
:104C0400807FDBBDFFFF6FF9FDDFDEFFE49BCC3867
:104C14009E0080100193B334C9807EFFFF7F77FB31
:104C24007CFF7F7BF7F2679C6D2E00003001C67815
:104C340093330037BF77F7FDFFFE77FBFFDDEB27EC
:104C440038632700003100C65ECD2D80DFF7DFDF3B
:104C5400BF6FBE1FEEEF7FE99E38D8D3000010006F
:104C6400CF9C64C7007EFDFDFFEFFEFFCF7FBBF747
:104C7400CCCC31CE5B80000000672D32730037EF5F
:104C8400F777FEF7DF93F7FFBF926C3983260000B6
:104C9400000037CF1B1B00BDFF7FFFF7BDF7E6FF0A
:104CA4006FEFB339F1F093000000003F8EC99B0011
:104CB400BFBDDDEDFFFFBDF13FFEFECC9FF3FCD792
:104CC400000000001DECA8C6004FEFFF7FFBDBFFD8
:104CD400FCDDF7FF92DFF31F26000000001DCDA6C8
:104CE40066007F7B7BDEFEFF77DE97BFDF3279B322
:104CF400032E000000000CCE5336003DFFDFF7FF0B
:104D0400B7DFE722FEFF4D3DBB01CE000000000AE5
:104D1400FE5996009FEDFF7F7FFEFFE3E80B66657B
:104D2400733900CC000000001A7F8CCC0077BFEDF3
:104D3400FBDFFFFFC0FFA00E927339C078000000B4
:104D4400001CFFA66C003EFEFFBFFFFFFFF01FFF2D
:104D5400FD5AEB1CE07800000B001A77332C009FFF
:104D6400EFB7EDBBFFFFF8007FFD64EB1E3FE000F3
:104D7400001FC0336FC98C007DBBFF7FFFFFEC0CAD
:104D8400000D962D330F0F8000007DF01C7BCCD8D6
:104D9400002FFFDDFFFFF2000F000DB2C9960FC018
:104DA400600000643835BDD25800BBEDFFFFEC0055
:104DB4000001E01B89264603FDC00000D33C353DBD
:104DC400F338003F7F6FE400000001FE1B6CB273F8
:104DD40000FFC36D00D98C327BCCB0005DDFFF8057
:104DE40000000000DFF3539996004B3FFFC1A4CEAF
:104DF4002B3ED298005FFDFE000000000085EB947E
:104E04004C96012BED9383666664BFD2700036F72F
:104E1400F00000000000F26BAD6666FFFF99378377
:104E2400592634BBED3000BFDFC00000000000CACB
:104E3400F323332FF61C964E030336733EE9B0007A
:104E44001B7F000000000000CA776C999F003A6441
:104E5400CC03F4CC7937F260007FFC000000000042
:104E640000756494CCC600F32B3C077CA67DBDF68C
:104E740070009FF0000000000000E53993266601F1
:104E8400CCC930130F2C7CBFE96000BFC000000008
:104E94000000006A766CB23603B254F036034CFE5E
:104EA4005FE960003E000000000000006A7262CD0D
:104EB4008E072656C01F01D8EF7F76600078000069
:104EC4000000000000736B1A51660E9993C01F0016
:104ED40099E33F72E000E000000000000000646914
:104EE4009536563CCB33001F80F1B4B4ECC000803F
:104EF400000000000000006DB4C58C9639324E00ED
:104F04000FE0E3CC8C74C00000000000000000003F
:104F140072766CC9A6E652CE018E7FCF4B6B76C0FB
:104F24000000000000000000003273326666D4CC3A
:104F3400B800C79FFF325262C000000000000000AA
:104F440000002D69933257D325380067FFED949400
:104F5400F980000000000000000000396CCC999733
:104F64002CB3600037F924CDB4CD800000000000DC
:104F740000000000327332CCA7A498E000FFC932CD
:104F84006326E5800000000000000000003674661F
:104F94006666334CC03FF926CB3249B3800000002B
:104FA4000000000000003536C9331CCE65DFFE9CCE
:104FB400B29999D9CB00000000000000000000194C
:104FC400B299999D4993FFCC9E9264CC8DCB0000FD
:104FD40000000000000000001A79264CB93259A4E0
:104FE400D34E4D266663330000000000000000002D
:104FF4000032356AE4B2CCCCA632676599335B964D
:10500400000000000000000000001DB4CA27365351
:1050140022698C9B32659893960000000000000082
:10502400000000193A999979366B1965A78CCCC69A
:10503400A766000000000000000000001A72656A04
:10504400658C99C6526599926CAD2C0000000000E5
:1050540000000000001B3D964AD4C9945A9A59F3A3
:1050640033292F2C000000000000000000001999D3
:105074003299D2666732A39264CCCB4ECC00000046
:10508400000000000000001CFAC9A4EB32C98CAC7B
:10509400CCD93250DC9C000000000000000000006D
:1050A4000E3A6C66C99998C99929A64B3699580045
:1050B4000000000000000000001B3D259998CC660C
:1050C40066532665C98D3B580000000000000000AF
:1050D4000000199D9329E6664D334CDA5934C972A0
:1050E40098000000000000000000000CBCDA67CD4E
:1050F400333199324992667274B0000000000000A6
:10510400000000000E3E4991B199964CCB664EC901
:1051140026E5B0000000000000000000000D9F36EE
:105124005B164CC9665919649B2CF870000000008A
:105134000000000000000D5EC4CBC96673325593B5
:105144003132C9BE6000000000000000000000060B
:105154005F3925AB330C93A4CC9B6493DE600000D1
:105164000000000000000000049F27332C99699C74
:10517400AC64C8CDB767E000000000000000000088
:1051840000079FC8CBC4CCCA6493332691263FC082
:1051940000000000000000000000066D9A4BB326DA
:1051A4009ACB669934B64EDBC000000000000000C4
:1051B400000000062FE6732CB1A4992CCCC98CDD19
:1051C4007F8000000000000000000000039FE595C0
:1051D400C9992664C9264E6999EF80000000000031
:1051E4000000000000034DF4939A4CD996533332D7
:1051F4004A7BBF8000000000000000000000036F35
:10520400726BA66699339CC993326CFF0000000050
:1052140000000000000000032FFB29A59926C8A563
:105224004CCCCDE7FB0000000000000000000000B3
:10523400018FB999D8B3649B253265919B7B00009B
:1052440000000000000000000000E6ECC6CB24993A
:10525400A4DA931937DFF600000000000000000014
:10526400000000F7DE64A4CCCE4C92CCD2CE5DE636
:105274000000000000000000000000003F7733360B
:105284003322733465964B77CC0000000000000095
:1052940000000000000FCF9952C9B9916733253D32
:1052A400BFDC00000000000000000000000006F366
:1052B4008D49AC8C9CC89A69B4EF4C000000000086
:1052C4000000000000000003B7E66D2666669AC978
:1052D40098FBFF3800000000000000000000000000
:1052E40007E6F292635322666647CB7C980000007F
:1052F40000000000000000000006DBFCB399519B95
:10530400293257AFF99800000000000000000000A7
:10531400000003F37D2CB49CD8C9999F36FA700021
:105324000000000000000000000000036DFF49269B
:10533400A647364CBCDFE53000000000000000004A
:105344000000000007EDBBD349A3649266FCDBA513
:105354006000000000000000000000000003F3F8FB
:10536400F4D93932CD93F37FDA60000000000000F5
:1053740000000000000003FFF03C964C9A649FD9A3
:10538400EF52C00000000000000000000000000018
:105394006FF01F23C6C6327F6DBF94C000000000AB
:1053A400000000000000000000000003E872598BB8
:1053B400F7A7FCB5C00000000000000000000000DA
:1053C4000000000000FE1A65BFFDBB7A49800000A2
:1053D40000000000000000000000000000001F8B1F
:1053E400947DDE4FFB4B80000000000000000000B5
:1053F4000000000000000003E13693F6DDE4B30092
:105404000000000000000000000000000000000098
:1054140000FC42E7B9B7D4A7000000000000000078
:10542400000000000000000000003FD81FED7F9343
:105434002E0000000000000000000000000000003A
:1054440000000003FF9ED6DF6CCC000000000000CB
:10545400000000000000000000000000004FFBD22C
:10546400FE0498000000000000000000000000009E
:10547400000000000000007F6FFDB678000000000F
:105484000000000000000000000000000000000018
:105494003FFFFFFFF00000000000000000000000DC
:1054A4000000000000000000000DB692492000003A
:1054B40000000000000000000000000000000000E8
:1054C40000000000000000000000000000000000D8
:1054D40000000000000000000000000000000000C8
:1054E40000000000000000000000000000000000B8
:1054F40000000000000000000000000000000000A8
:105504000000000000000000000000000000000097
:105514000000000000000000000000000000000087
:105524000000000000000000000000000000000077
:105534000000000000000000000000000000000067
:10554400000000000000000000002000C013002044
:1055540000000000404100086041000820410008AC
:105564000000000000000000000000000000000037
:105574000000000000000000000000000000000027
:105584000000000000000000000000000000000017
:105594000000000000000000000000000000000007
:1055A40000000000000000000000000000000000F7
:04000005080038B502
:00000001FF
