:020000040800F2
:10000000002000206D5B0008C1570008CB57000896
:1000100000000000000000000000000000000000E0
:10002000000000000000000000000000D1570008A0
:100030000000000000000000DB570008E557000842
:10004000BD5B0008BD5B0008BD5B0008BD5B000830
:10005000BD5B0008BD5B0008F5570008BD5B0008EC
:1000600000000000BD5B0008BD5B0008BD5B000830
:10007000BD5B0008BD5B000800000000BD5B000820
:1000800000000000BD5B0008000000000000000050
:10009000BD5B000800000000BD5B0008BD5B000800
:1000A000BD5B0008BD5B0008BD5B00087553000820
:1000B0008D530008BD5B0008000000000000000038
:1000C00010B5064C2378002B07D1054B002B02D02E
:1000D000044800E000BF0123237010BDB4140020C9
:1000E00000000000006C0008044B10B5002B03D08A
:1000F0000349044800E000BF10BDC04600000000F6
:10010000B8140020006C0008002243088B4274D30E
:1001100003098B425FD3030A8B4244D3030B8B4208
:1001200028D3030C8B420DD3FF22090212BA030C11
:100130008B4202D31212090265D0030B8B4219D3F2
:1001400000E0090AC30B8B4201D3CB03C01A524112
:10015000830B8B4201D38B03C01A5241430B8B425A
:1001600001D34B03C01A5241030B8B4201D30B0343
:10017000C01A5241C30A8B4201D3CB02C01A52416A
:10018000830A8B4201D38B02C01A5241430A8B422D
:1001900001D34B02C01A5241030A8B4201D30B0216
:1001A000C01A5241CDD2C3098B4201D3CB01C01A30
:1001B000524183098B4201D38B01C01A524143093A
:1001C0008B4201D34B01C01A524103098B4201D328
:1001D0000B01C01A5241C3088B4201D3CB00C01A95
:1001E000524183088B4201D38B00C01A524143080D
:1001F0008B4201D34B00C01A5241411A00D2014632
:10020000524110467047FFE701B5002000F006F8A4
:1002100002BDC0460029F7D076E770477047C04658
:10022000002B11D1002A0FD1002900D1002802D0C3
:100230000021C943080007B4024802A140180290F7
:1002400003BDC046D9FFFFFF03B4684601B502985D
:1002500000F006F8019B9E4602B00CBC7047C046F9
:10026000F0B557464E464546DE46E0B504000D0063
:100270009246994683B08B4230D82DD0494650469D
:1002800000F0BAF829000600200000F0B5F8331A93
:100290009846203B9B4633D45A46534693404246A9
:1002A0001F00534693401E00AF423AD8AF4200D1E0
:1002B00078E05B46A41BBD41002B00DA75E000220C
:1002C00000230092019301235A4693400193012396
:1002D00042469340009328E08242CFD90022002377
:1002E000009201930C9B002B01D01C605D60009874
:1002F000019903B0F0BCBB46B246A946A046F0BD8A
:10030000424620239B1A5246DA40414613004A4691
:100310008A40170042461F43534693401E00AF4297
:10032000C4D900220023009201934346002BD9D068
:10033000FB0772081A4346467B080EE0AB4201D128
:10034000A2420CD8A41A9D41012024196D4100211C
:10035000013E24184D41002E06D0AB42EED9013E9D
:1003600024196D41002EF8D1009801995B460019BF
:100370006941002B24DB2B005A464446D3402A0017
:10038000E2401C005B461500002B2ADB26009E4045
:10039000330026004746BE403200801A9941009043
:1003A00001919FE7A342BCD883E742462023002166
:1003B0009B1A0022009101920122DA40019286E705
:1003C000424620239B1A2A0046469A402300F340C7
:1003D000444613432A00E2401C005B461500002BF4
:1003E000D4DA42462F002023260097409B1ADE4095
:1003F0003B003343CDE7C04610B5002903D100F0E0
:1004000007F8203002E0080000F002F810BDC046F6
:100410001C2101231B04984201D3000C10391B0A34
:10042000984201D3000A08391B09984201D30009F8
:10043000043902A2105C40187047C046040302024F
:100440000101010100000000000000000023C25C67
:100450000133002AFBD1581E7047000003B47146D7
:10046000490840004900095E49008E4403BC7047BA
:1004700080B584B000AF786039600023FB607B6892
:10048000002B03D101235B42FB6030E03B681A681C
:100490007B681A603B685A687B685A603B68DA6818
:1004A0007B68DA603B681A697B681A613B689A6806
:1004B0007B689A603B685A697B685A617B680E4A20
:1004C000DA617B680D4A9A617B687A681A627B6898
:1004D0001B68002B03D101235B42FB6007E07B68B4
:1004E0001B689847031E02D001235B42FB60FB6838
:1004F0001800BD4604B080BD2F0B0008990B000802
:1005000090B585B000AF78607B685B6A002B12D134
:100510000F243A197B681100180000F014F822002B
:10052000BB181B78242B06D0BB181B78262B02D0B7
:1005300001235B4203E07B6801225A62002318001A
:10054000BD4605B090BD80B582B000AF786039601F
:100550007B6818333A681100180000F0B4FB030000
:100560001800BD4602B080BD80B582B000AF786093
:1005700039607B689B683A681100A62098470300A1
:100580001800BD4602B080BD80B584B000AF786071
:1005900039607B6818330B22BA181100180000F07C
:1005A00061FC0300FB60FB68002B01D0FB6806E0E8
:1005B0000B23FB181B789AB23B681A8000231800A3
:1005C000BD4604B080BD80B582B000AF78600A003F
:1005D000BB1C1A807B681833BA1C1100180000F08D
:1005E00056FC03001800BD4602B080BD90B585B032
:1005F00000AFF860B9601900BB1D1A803B1D0A1CD2
:100600001A80FB681C693B1D1888BA68BB1D1988D5
:100610000300A620A04703001800BD4605B090BD0A
:1006200090B58BB000AFF860B9601900BB1D1A809F
:100630003B1D0A1C1A80BB68FB611A23FB183A1D7C
:1006400012881A801823FB18BA1D12881A801A23E0
:10065000FB181A8880235B009A4205D92223FB18D5
:10066000802252001A8005E02223FB181A22BA18B1
:1006700012881A80FB68DC682223FB181888FA6944
:100680001823FB1819880300A620A04703007B62EB
:100690007B6A002B20D1FB685B69984703007B6174
:1006A000FB689B680121A620984703003B61FB681B
:1006B0005B69984703001A007B69D31A1A00A023CC
:1006C0005B009A4202D23B69002BE9D13B69002BC7
:1006D00002D003235B427B6222203B181B88FA690D
:1006E000D318FB611822BB18B9183A180988128868
:1006F0008A181A801A243B1939193A18098812885D
:100700008A1A1A803B191B88002B02D07B6A002BA7
:100710009DD07B6A1800BD460BB090BD90B58BB0E4
:1007200000AFF860B9601900BB1D1A803B1D0A1CA0
:100730001A802023FB183A1D12881A801E23FB18EA
:10074000BA1D12881A80BB68BB612023FB181A8867
:1007500080235B009A4204D92323FB1800221A70DD
:1007600005E02323FB182022BA1812881A70FB68B0
:10077000DC682323FB181B7898B2BA691E23FB1888
:1007800019880300AE20A04703007B627B6A002B20
:1007900020D1FB685B69984703007B61FB689B681D
:1007A0000121A620984703003B61FB685B699847DD
:1007B00003001A007B69D31A1A00A0235B009A4237
:1007C00002D23B69002BE9D13B69002B02D0032305
:1007D0005B427B6223203B181B78BA69D318BB614C
:1007E0003B181B7899B21E22BB18BA1812888A18B7
:1007F0001A803B181B789AB220203B1839180988B8
:100800008A1A1A803B181B88002B02D07B6A002BA7
:100810009BD07B6A1800BD460BB090BD90B58BB0E5
:1008200000AFF8603B1D19605A6014243B19002288
:100830001A6004330D220021180005F0D2FB3B1989
:1008400009221A722723FB1800221A7034E03B1D7C
:100850001A6827203B181B780321CB1ADB00DA40EB
:100860003B181B78D1B214243A19D1543B1D5A6855
:100870003B181B780321CB1ADB00DA403B181B78AE
:100880000433D1B23A19D1543B181A783B181B786B
:1008900009333919895C3A19D1543B181B781A1D50
:1008A0003B181B780D333919895C3A19D1543B1820
:1008B0001A783B1801321A702723FB181B78032B78
:1008C000C5D990231A011423F918F8681123FFF7EA
:1008D00025FF03001800BD460BB090BD80B584B065
:1008E00000AF78600A00FB1C1A700F217B18FA1CFD
:1008F00012781A707B6818337A181100180000F00B
:10090000DBFA03001800BD4604B080BD80B584B09A
:1009100000AF786039607B6818330B22BA18110079
:10092000180000F0E5F90300FB60FB68002B01D024
:10093000FB680CE00B23FB181B78002B03D03B68F3
:1009400001221A7002E03B6800221A70002318008E
:10095000BD4604B080BD80B584B000AF78600A00A9
:10096000FB1C1A700B217B18FA1C12781A707B681A
:1009700018337A181100180000F0DAF90300FB6050
:10098000FB681800BD4604B080BD000090B585B07E
:1009900000AFF860B9601900BB1D1A803B1D0A1C2E
:1009A0001A80BB1D1A8880235B009A4202D901235A
:1009B0005B420DE0FB681C69BB1D1B88064A944620
:1009C000634499B23B1D1B88BA68A620A047030068
:1009D0001800BD4605B090BD0820000080B584B069
:1009E00000AF786039607B6818330B22BA181100A9
:1009F000180000F0CBFA0300FB60FB68002B01D06D
:100A0000FB680CE00B23FB181B78002B03D03B6822
:100A100001221A7002E03B6800221A7000231800BD
:100A2000BD4604B080BD80B584B000AF78600F21B2
:100A30007B1801221A707B6818337A18110018008D
:100A400000F06EFA03001800BD4604B080BD80B50A
:100A500084B000AF786039607B6818330B22BA1815
:100A60001100180000F0E6F90300FB60FB68002BA2
:100A700001D0FB6832E00B217B181B780122134068
:100A8000DAB23B681A707B181B785B10DBB201226C
:100A90001340DAB23B685A707B181B789B10DBB2AC
:100AA00001221340DAB23B689A707B181B781B1145
:100AB000DBB201221340DAB23B68DA707B181B7894
:100AC0005B11DBB201221340DAB23B681A717B186A
:100AD0001B789B09DAB23B685A7100231800BD46A7
:100AE00004B080BD80B584B000AF78600F217B1862
:100AF00001221A707B6818337A181100180000F070
:100B000063F903001800BD4604B080BD80B582B013
:100B100000AF786039607B6818333A6811001800BC
:100B200000F03AF903001800BD4602B080BD90B550
:100B300087B000AFF86008007A6019000A243B19FA
:100B4000021C1A8008203B180A1C1A80FB687B6173
:100B500021007B181A8880239B0113400BD07B69EE
:100B60001C693B1818887A687B1819880300A6202E
:100B7000A04703000CE07B691C690823FB18188858
:100B80007A680A23FB1819880300AE20A0470300E7
:100B90001800BD4607B090BD90B589B000AFF860B1
:100BA00008007A6019000A243B19021C1A800820E8
:100BB0003B180A1C1A80FB68BB6121007B181A884D
:100BC00080239B0113400BD0BB69DC683B1818885D
:100BD0007A687B1819880300A620A047030030E03C
:100BE000BB69DC680823FB1818887A680A23FB189D
:100BF00019880300AE20A0470300FB61FB69002BAE
:100C00001ED1BB695B69984703007B61BB699B6828
:100C10000121AE20984703003B61BB695B6998479F
:100C200002007B69D21AA0235B009A4202D23B6980
:100C3000002BEBD13B69002B02D003235B42FB610D
:100C4000FB691800BD4609B090BDF0B585B000AF96
:100C5000F86008007A6019000A26BB19021C1A8085
:100C600008257B190A1C1A80FB685C68FB68986879
:100C70007B191D887A68BB1919882B00A0470300CF
:100C80001800BD4605B0F0BDF0B585B000AFF86006
:100C900008007A6019000A26BB19021C1A80082570
:100CA0007B190A1C1A80FB681C68FB6898687B1912
:100CB0001D887A68BB1919882B00A047030018000B
:100CC000BD4605B0F0BD80B582B000AF7860396038
:100CD0003A68786801231721FFF7B7FF031E02D097
:100CE00001235B4200E000231800BD4602B080BD36
:100CF00080B582B000AF786039603A6878680123C7
:100D00000D21FFF7A2FF031E02D001235B420BE07F
:100D10003B681B7801221340DAB23B681A703B68CB
:100D20001A783B681A7000231800BD4602B080BDD7
:100D300080B584B000AF786039600F23FA18786806
:100D400001230D21FFF781FF031E02D001235B4227
:100D50001DE03B681B785BB2012213405AB20F20A2
:100D60003B181B785BB201218B435BB213435BB230
:100D7000DAB23B181A703A18786801230D21FFF790
:100D800083FF031E02D001235B4200E00023180012
:100D9000BD4604B080BD000080B582B000AF786071
:100DA00039603A68074978680123FFF74EFF031E50
:100DB00002D001235B4200E000231800BD4602B0D0
:100DC00080BDC0460720000080B584B000AF7860C9
:100DD00039600F23FA18164978680123FFF735FFA9
:100DE000031E02D001235B421DE03B681B785BB20F
:100DF000012213405AB20F203B181B785BB201212D
:100E00008B435BB213435BB2DAB23B181A703A18E9
:100E1000074978680123FFF737FF031E02D001233B
:100E20005B4200E000231800BD4604B080BDC04610
:100E30000620000080B582B000AF786039603A6863
:100E4000074978680123FFF700FF031E02D0012342
:100E50005B4200E000231800BD4602B080BDC046E2
:100E60000620000080B582B000AF786039603A6833
:100E7000786801230021FFF7E8FE031E02D001235A
:100E80005B4200E000231800BD4602B080BD80B583
:100E900082B000AF786039603A6878680123002139
:100EA000FFF7F2FE031E02D001235B4200E00023A5
:100EB0001800BD4602B080BD80B584B000AF786038
:100EC00039600F23FA18786801230221FFF7BDFE6D
:100ED000031E02D001235B421DE03B681B785BB21E
:100EE000012213405AB20F203B181B785BB201213C
:100EF0008B435BB213435BB2DAB23B181A703A18F9
:100F0000786801230221FFF7BFFE031E02D00123F0
:100F10005B4200E000231800BD4604B080BD000025
:100F200080B584B000AF786039600F23FA18164995
:100F300078680123FFF789FE031E02D001235B427C
:100F40001DE03B681B785BB2012213405AB20F20B0
:100F50003B181B785BB201218B435BB213435BB23E
:100F6000DAB23B181A703A18074978680123FFF77C
:100F70008BFE031E02D001235B4200E00023180019
:100F8000BD4604B080BDC0460220000080B582B0DE
:100F900000AF786039603A680C4978680123FFF740
:100FA00054FE031E02D001235B420BE03B681B781A
:100FB00001221340DAB23B681A703B681A783B682A
:100FC0001A7000231800BD4602B080BD0420000046
:100FD00080B584B000AF0200FB1D1A7014E00F232F
:100FE000FB1800221A7005E00F217B181A787B1875
:100FF00001321A700F23FB181B78002BF4D0FB1D55
:101000001A78FB1D013A1A70FB1D1B78002BE6D1E4
:10101000C046C046BD4604B080BD80B584B000AFB8
:101020000200FB1D1A700120FFF7D2FF0F23FB18EF
:1010300000221A7035E0A023DB05002240211800B1
:1010400001F0C5F80120FFF7C3FFFB1D1B785BB261
:10105000002B07DAA023DB0501222021180001F074
:10106000B6F806E0A023DB0500222021180001F0DD
:10107000AEF8FA1DFB1D1B78DB1813700120FFF77B
:10108000A7FFA023DB0501224021180001F09FF8F3
:101090000120FFF79DFF0F217B181A787B18013282
:1010A0001A700F23FB181B78072BC4D9C046C04603
:1010B000BD4604B080BD80B582B000AF0200FB1D0C
:1010C0001A70FB1D1B781800FFF7A7FFC046BD462E
:1010D00002B080BD80B500AF0E4B01220221180086
:1010E00001F075F8C82000F0C5FC0A4B002202216F
:1010F000180001F06CF8022000F0BCFC054B012246
:101100000221180001F063F8C82000F0B3FCC046CB
:10111000BD4680BD0004005080B582B000AF020023
:10112000FB1D1A700E4B00220121180001F04FF830
:10113000A023DB0500228021180001F048F8FB1DE8
:101140001B781800FFF7B7FFA023DB0501228021E1
:10115000180001F03CF8C046BD4602B080BDC04654
:101160000004005080B582B000AF0200FB1D1A7071
:101170000E4B01220121180001F029F8A023DB0504
:1011800000228021180001F022F8FB1D1B781800B6
:10119000FFF791FFA023DB0501228021180001F059
:1011A00016F8C046BD4602B080BDC04600040050DF
:1011B00080B500AF02E00A2000F05CFC80235A00FA
:1011C000A023DB051100180000F0E4FF0300012B51
:1011D000F1D0C046C046BD4680BD80B500AF2220DC
:1011E000FFF79AFFC720FFF7BDFF2020FFF794FF0E
:1011F000FFF7DEFFC046BD4680BD90B585B000AFAD
:1012000078603220FFF788FF0F23FB1800221A7046
:101210000DE00F243B191B787A68D3181B7818004F
:10122000FFF7A0FF3B191A783B1901321A700F2300
:10123000FB181B78982BECD9FFF7BAFFC046BD46C8
:1012400005B090BD80B582B000AF78607B681800B3
:10125000FFF7D3FF3F20FFF75FFF7B6899331B78D1
:101260001800FFF77FFF0320FFF756FF7B689A33D4
:101270001B781800FFF776FF0420FFF74DFF7B680F
:101280009B331B781800FFF76DFF7B689C331B783E
:101290001800FFF767FF7B689D331B781800FFF786
:1012A00061FF2C20FFF738FF7B689E331B78180006
:1012B000FFF758FFC046BD4602B080BDB0B582B052
:1012C00000AF05000C0010001900BB1D2A1C1A807D
:1012D0003B1D221C1A80BB1C021C1A803B000A1CEE
:1012E0001A804420FFF718FFBB1D1B88DB089BB248
:1012F000DBB21800FFF736FFBB1C1B88DB089BB274
:10130000DBB21800FFF72EFF4520FFF705FF3B1D5E
:101310001B88DBB21800FFF725FF3B1D1B881B0A4B
:101320009BB2DBB21800FFF71DFF3B001B88DBB24E
:101330001800FFF717FF3B001B881B0A9BB2DBB2AC
:101340001800FFF70FFFC046BD4602B0B0BD80B524
:1013500082B000AF0200BB1D1A803B1D0A1C1A8020
:101360004E20FFF7D9FEBB1D1B88DBB21800FFF72C
:10137000F9FE4F20FFF7D0FE3B1D1B88DBB21800A3
:10138000FFF7F0FE3B1D1B881B0A9BB2DBB2180067
:10139000FFF7E8FEC046BD4602B080BD80B500AF95
:1013A000FFF798FEFFF704FF1220FFF7B5FEFFF7E7
:1013B000FFFE0120FFF7B0FEC720FFF7D3FE00209D
:1013C000FFF7D0FE0120FFF7CDFE1120FFF7A4FEAE
:1013D0000120FFF7C7FE0023C722C7210020FFF727
:1013E0006DFF3C20FFF798FE0120FFF7BBFE1820A1
:1013F000FFF792FE8020FFF7B5FE2220FFF78CFE5C
:10140000B120FFF7AFFE2020FFF786FEC7210020A6
:10141000FFF79DFFFFF7CCFE034B1800FFF712FF0D
:10142000C046BD4680BDC0461C00002090B587B0B8
:1014300000AF78601223FB1819221A801023FB18C2
:10144000C8221A800023FB602420FFF765FE1623C4
:10145000FB1800221A802FE01423FB1800221A80A8
:101460001CE014243B191A881023FB181988162332
:10147000FB181B88CB1A013B1221791809884B43B2
:10148000D318FB607A68FB68D3181B781800FFF745
:1014900069FE3B191A883B1901321A801423FA1885
:1014A0001223FB1812881B889A42DAD316217B1864
:1014B0001A887B1801321A801623FA181023FB1899
:1014C00012881B889A42C7D3FFF787FEC046BD46E5
:1014D00007B090BD80B586B000AF3B1D08221A60F2
:1014E0003B1D144A5A603B1D0222DA603B1D00225C
:1014F0009A603A1DA023DB051100180000F0FAFBEA
:101500000D4A0E4B1100180004F010F90C4A0B4B59
:101510000021180004F0E9F800220021062000F064
:101520006FFB062000F081FB00231800BD4606B0CB
:1015300080BDC0460000111003000006BC00002062
:10154000A119000880B58AB000AF78600C217B1823
:10155000214A1A607B18214A5A607B18204A9A60F7
:101560007B18204A1A617B181F4ADA607B181F4AD1
:101570005A617A181E4B11001800FEF779FF03001C
:101580007B627B6A002B02D001235B421FE0194B78
:10159000194A1A60174B1B681B68002B10D0154B9B
:1015A0001B681B68124A1000984703007B627B6A25
:1015B000002B0BD00F4B00221A6001235B4206E088
:1015C0000C4B00221A6001235B4200E0002318004C
:1015D000BD460AB080BDC046B14E00082D4F000880
:1015E0007D4F000831500008B94F0008611A00080B
:1015F000D4140020D01400200000002080B582B058
:1016000000AF78600A00BB1C1A800A4B1B681B697C
:10161000002B02D101235B4208E0064B1B681B69CB
:10162000BA1C1188044A1000984703001800BD46F0
:1016300002B080BDD0140020D414002080B584B046
:1016400000AFF8603B1D19605A603B1D04481968E3
:101650005A68FFF7E3F803001800BD4604B080BDE8
:10166000D414002080B582B000AF78600A00FB1C63
:101670001A70FB1C1A78054B11001800FFF72EF9A1
:1016800003001800BD4602B080BDC046D41400203F
:1016900080B582B000AF786039603A68044B1100C1
:1016A0001800FFF733F903001800BD4602B080BDF3
:1016B000D414002080B582B000AF78600A00FB1C13
:1016C0001A70FB1C1A78054B11001800FFF743F93C
:1016D00003001800BD4602B080BDC046D4140020EF
:1016E00090B585B000AFF860B9601900BB1D1A80D5
:1016F0003B1D0A1C1A803B1D1C88BB1D1A88B9683B
:1017000004482300FFF742F903001800BD4605B066
:1017100090BDC046D414002080B582B000AF786080
:1017200039603A68044B11001800FFF757F90300BD
:101730001800BD4602B080BDD414002080B582B030
:1017400000AF7860044B1800FFF76DF90300180034
:10175000BD4602B080BDC046D414002080B582B022
:1017600000AF786039603A68044B11001800FFF749
:101770006EF903001800BD4602B080BDD4140020ED
:1017800080B582B000AF7860044B1800FFF7AAF96B
:1017900003001800BD4602B080BDC046D41400202E
:1017A00080B582B000AF786039603A68044B1100B0
:1017B0001800FFF7ABF903001800BD4602B080BD6A
:1017C000D414002080B500AF00F00AF8C046BD4632
:1017D00080BD80B500AF00F079F8C046BD4680BD41
:1017E00080B500AFC0460020FFF7ACFE031EFAD163
:1017F000324B19000020FFF78FFF304B1B78002B76
:101800000BD12F4B00221A602D4B00225A602C4B1B
:1018100019685A680020FFF711FF00210020FFF728
:1018200021FF0020FFF78AFF264B19000020FFF759
:101830002FFF244B1B78002B24D1204B19000020B4
:10184000FFF76AFF1D4B1B78002B0BD11C4B0022AE
:101850001A601B4B00225A60194B19685A68002005
:10186000FFF7ECFE01210020FFF724FF144B7B2241
:101870001A60134B7B225A60114B19685A6800207A
:10188000FFF7DCFE0020FFF77BFF0F4B180004F092
:1018900093FCFFF71FFE0A4B00221A60084B002240
:1018A0005A60074B19685A680020FFF7C7FEB0213D
:1018B0000020FFF7A3FEC046BD4680BD10150020E6
:1018C0000815002006150020186C000880B500AF30
:1018D0002C4B1B78DBB2012B50D12B4B1900002075
:1018E000FFF73CFF284B9B78012B44D1274B190075
:1018F0000020FFF755FF254B1B8801339AB2234B7D
:101900001A80224B1B88032B03D1214B00221A6023
:1019100021E01E4B1B88C82B1DD1A023DB05012213
:101920000421180000F053FC194B1B681A00194BD6
:10193000D118C82300220020FFF7D2FE144B1B68E9
:10194000C8331A00124B1A60A023DB0500220421C1
:10195000180000F03CFC0E4B1B680F4A93420AD162
:101960000B4B00221A600B4B1800FFF75FFD0B4B6F
:10197000180000F07FF8034B00221A70C046BD46E5
:1019800080BDC0461115002000150020FC14002069
:1019900014150020C400002088130000B80B0000BC
:1019A00080B500AF024B01221A70C046BD4680BD13
:1019B0001115002080B582B000AFFB1D00221A7007
:1019C0000B4B1A680A4B40210A431A60002000F0B2
:1019D00011F8031E03D0FB1D01221A7001E003F071
:1019E000DBFEFB1D1B781800BD4602B080BDC04663
:1019F0000020024090B585B000AF78600F243B19FD
:101A000000221A700F4B1B68FA2291001800FEF793
:101A10007BFB0300180000F018F9031E03D03B19EC
:101A200001221A7006E0796801235B420022180047
:101A300000F0E6F80F23FB181B781800BD4605B030
:101A400090BDC0464C14002080B500AF034B1B680E
:101A50005A1C024B1A60C046BD4680BD18150020B6
:101A600080B500AF024B1B681800BD4680BDC04664
:101A70001815002080B584B000AF7860FFF7F0FF44
:101A80000300BB607B68FB60FB68013302D0FB682E
:101A90000133FB60C046FFF7E3FF0200BB68D31AC7
:101AA000FA689A42F7D8C046C046BD4604B080BD29
:101AB00080B582B000AF0200FB1D1A70FB1D1B78C1
:101AC0001A001F231A40044B012191400A001A609A
:101AD000C046BD4602B080BD00E100E090B583B0D5
:101AE00000AF02003960FB1D1A70FB1D1B787F2BB5
:101AF00032D92F4AFB1D1B7819000F230B40083BDE
:101B00009B0806339B00D31804331B68FA1D127818
:101B1000110003220A40D200FF2191400A00D24363
:101B20001A4011003B689B01FF221A40FB1D1B78E5
:101B3000180003230340DB009A401D48FB1D1B785F
:101B40001C000F232340083B9B080A4306339B00DD
:101B5000C31804331A6027E0164AFB1D1B785BB2DA
:101B60009B08C0339B009B58FA1D1278110003227A
:101B70000A40D200FF2191400A00D2431A401100CE
:101B80003B689B01FF221A40FB1D1B7818000323B2
:101B90000340DB009A400748FB1D1B785BB29B08A3
:101BA0000A43C0339B001A50C046BD4603B090BDE7
:101BB00000ED00E000E100E080B582B000AF7860A9
:101BC0007B685A1E80235B049A4201D3012310E0F4
:101BD0000A4B7A68013A5A6001235B4203211800DC
:101BE000FFF77CFF054B00229A60044B07221A6026
:101BF00000231800BD4602B080BDC04610E000E0E2
:101C000080B584B000AFB9607A600F217B18021CE8
:101C10001A70BA687B181B785BB211001800FFF7C6
:101C20005DFFC046BD4604B080BD80B582B000AF48
:101C30000200FB1D1A70FB1D1B785BB21800FFF73A
:101C400037FFC046BD4602B080BD80B582B000AF50
:101C500078607B681800FFF7AFFF03001800BD46EF
:101C600002B080BD80B584B000AF78600F217B18D2
:101C700000221A707B6825229B5CDBB2022B06D007
:101C80007B680422DA637B1801221A702AE07B68E1
:101C90001B681A687B681B680E218A431A607B6880
:101CA0001B681A687B681B6801218A431A607B687D
:101CB0005B6C1C221A407B681B6C012191400A005E
:101CC0005A607B682522012199547B6824220021D7
:101CD00099547B689B6B002B04D07B689B6B7A6864
:101CE000100098470F23FB181B781800BD4604B05E
:101CF00080BD000080B586B000AF786039600023F9
:101D00007B610023FB6000233B614FE13B681B6864
:101D100001217A6991400A001340FB60FB68002BA7
:101D200000D140E13B685B68022B03D03B685B68F5
:101D3000122B23D17B69DA087B6808329200D358D2
:101D40003B617B69072213409B000F229A401300DE
:101D5000DA433B6913403B613B681A697B690721A1
:101D60000B409B009A4013003A6913433B617B6927
:101D7000DA087B68083292003969D1503B685B68A9
:101D8000012B0BD03B685B68022B07D03B685B687C
:101D9000112B03D03B685B68122B30D17B689B68AA
:101DA0003B617B695B0003229A401300DA433B6985
:101DB00013403B613B68DA687B695B009A40130023
:101DC0003A6913433B617B683A699A607B685B6858
:101DD0003B6101227B699A401300DA433B6913405F
:101DE0003B613B685B681B0901221A407B699A4092
:101DF00013003A6913433B617B683A695A607B6818
:101E00001B683B617B695B0003229A401300DA4345
:101E10003B6913403B613B685B6803221A407B6966
:101E20005B009A4013003A6913433B617B683A694F
:101E30001A607B68DB683B617B695B0003229A4028
:101E40001300DA433B6913403B613B689A687B6946
:101E50005B009A4013003A6913433B617B683A691F
:101E6000DA603B685A6880235B05134000D19AE032
:101E7000544B5A6B534B01210A435A63524A7B69B4
:101E80009B0802339B009B583B617B6903221340F4
:101E90009B000F229A401300DA433B6913403B61D9
:101EA0007A68A023DB059A4219D07B68474A93429F
:101EB00013D07B68464A93420DD07B68454A9342D3
:101EC00007D07B68444A934201D1052308E00623EA
:101ED00006E0032304E0022302E0012300E00023E4
:101EE0007A6903210A40920093403A6913433B61A7
:101EF00035497B699B0802339B003A695A50374B3E
:101F00001B683B61FB68DA433B6913403B613B68FC
:101F10005A6880235B02134003D03A69FB6813437D
:101F20003B612E4B3A691A602C4B5B683B61FB6846
:101F3000DA433B6913403B613B685A6880239B024C
:101F4000134003D03A69FB6813433B61234B3A6962
:101F50005A60224B9B683B61FB68DA433B69134044
:101F60003B613B685A6880235B03134003D03A69A6
:101F7000FB6813433B61194B3A699A60174BDB6866
:101F80003B61FB68DA433B6913403B613B685A683D
:101F900080239B03134003D03A69FB6813433B61E2
:101FA0000E4B3A69DA607B6901337B613B681A68E2
:101FB0007B69DA40131E00D0A8E6C046C046BD4685
:101FC00006B080BD00100240000001400004005037
:101FD00000080050000C0050001C0050000401409C
:101FE00080B586B000AF7860396000237B61002344
:101FF0003B610023FB60B6E001227B699A403B68AD
:1020000013403B613B69002B00D1A9E07B681A6853
:102010007B695B00032199400B001A437B681A60BF
:102020007B69DA087B6808329200D3587A69072105
:102030000A4092000F2191400A00D1437A69D208E8
:1020400019407B6808329200D1507B689B687A699E
:102050005200032191400A00D2431A407B689A60E3
:102060007B685B6801217A6991400A00D2431A407B
:102070007B685A607B68DB687A6952000321914073
:102080000A00D2431A407B68DA603C4A7B699B08AD
:1020900002339B009B58FB607B69032213409B002B
:1020A0000F229A40FB681340FB607A68A023DB058F
:1020B0009A4219D07B68324A934213D07B68314AE6
:1020C00093420DD07B68304A934207D07B682F4AF9
:1020D000934201D1052308E0062306E0032304E030
:1020E000022302E0012300E000237A6903210A4071
:1020F00092009340FA689A4232D17B6903221340DE
:102100009B000F229A401300FB601C4A7B699B08CE
:1021100002339B009A58FB68D94318487B699B0897
:102120000A4002339B001A50194B1A683B69D94385
:10213000174B0A401A60164B5A683B69D943144B37
:102140000A405A60124B9A683B69D943104B0A40C7
:102150009A600F4BDA683B69D9430D4B0A40DA604D
:102160007B6901337B613A687B69DA40131E00D0DA
:1021700042E7C046C046BD4606B080BD00000140F3
:102180000004005000080050000C0050001C0050DB
:102190000004014080B584B000AF78600A00BB1C29
:1021A0001A807B681B69BA1C1288134004D00F2365
:1021B000FB1801221A7003E00F23FB1800221A708B
:1021C0000F23FB181B781800BD4604B080BD80B5F6
:1021D00082B000AF786008001100BB1C021C1A809E
:1021E0007B1C0A1C1A707B1C1B78002B04D0BB1CA8
:1021F0001A887B689A6103E0BB1C1A887B689A6224
:10220000C046BD4602B080BD80B582B000AF7860E8
:102210007B68002B01D1012382E07B6841229B5C1B
:10222000DBB2002B07D17B684022002199547B68E8
:10223000180000F0AFF87B684122242199547B6894
:102240001B681A687B681B6801218A431A607B68D7
:102250005A687B681B6834490A401A617B681B68AE
:102260009A687B681B6831490A409A607B68DB6822
:10227000012B08D17B689A687B681B688021090262
:102280000A439A6007E07B689A687B681B68842130
:1022900009020A439A607B68DB68022B04D17B68E1
:1022A0001B68802212015A607B681B685A687B6831
:1022B0001B681F490A435A607B681B68DA687B68A1
:1022C0001B681A490A40DA607B681A697B685B6997
:1022D0001A4311007B689B691A027B681B680A43DA
:1022E000DA607B68D9697B681A6A7B681B680A4375
:1022F0001A607B681B681A687B681B6801210A43A7
:102300001A607B6800225A647B684122202199541C
:102310007B6800221A637B684222002199540023C3
:102320001800BD4602B080BDFFFFFFF0FF7FFFFF3A
:102330000080000280B582B000AF78607B68002B1F
:1023400001D1012322E07B684122242199547B683A
:102350001B681A687B681B6801218A431A607B68C6
:10236000180000F01FF87B6800225A647B68412245
:10237000002199547B6800221A637B684222002165
:1023800099547B6840220021995400231800BD46CF
:1023900002B080BD80B582B000AF7860C046BD4657
:1023A00002B080BD80B582B000AF7860C046BD4647
:1023B00002B080BD90B589B002AFF8600C0010008B
:1023C00019000A23FB18221C1A800823FB18021C80
:1023D0001A80BB1D0A1C1A80FB6841229B5CDBB281
:1023E000202B00D00CE1BB6A002B04D02C23FB185F
:1023F0001B88002B05D1FB68802292005A640123C0
:10240000FFE0FB6840229B5C012B01D10223F8E036
:10241000FB68402201219954FFF722FB03007B61F6
:1024200080231902F8687B6900931923012200F0C8
:102430003BFC031E01D00123E3E0FB684122212184
:102440009954FB68422240219954FB6800225A6447
:10245000FB68BA6A5A62FB682C22BA1812885A853D
:10246000FB6800225A63BB1D1C880823FB181A88CE
:102470000A23FB181988F8687B6901933B6B00936A
:10248000230000F029FB031E05D0FB684022002139
:1024900099540123B5E0FB685B8D9BB2FF2B11D9EA
:1024A000FB68FF221A85FB681B8DDAB280235C046F
:1024B0000A23FB181988F86800230093230000F012
:1024C00013FD12E0FB685B8D9AB2FB681A85FB680E
:1024D0001B8DDAB280239C040A23FB181988F86844
:1024E00000230093230000F0FFFC7A69396BFB683E
:1024F000180000F018FC031E01D0012381E0FB68E6
:102500005B6A1A78FB681B689A62FB685B6A5A1CF4
:10251000FB685A62FB685B8D9BB2013B9AB2FB6819
:102520005A85FB681B8D013B9AB2FB681A85FB68D4
:102530005B8D9BB2002B3AD0FB681B8D002B36D1F4
:102540003A6BF8687B69009313000022802100F049
:10255000ABFB031E01D0012353E0FB685B8D9BB2F4
:10256000FF2B11D9FB68FF221A85FB681B8DDAB29D
:1025700080235C040A23FB181988F8680023009361
:10258000230000F0B1FC12E0FB685B8D9AB2FB689F
:102590001A85FB681B8DDAB280239C040A23FB1882
:1025A0001988F86800230093230000F09DFCFB6865
:1025B0005B8D9BB2002B98D17A69396BFB68180050
:1025C00000F0F0FB031E01D001231AE0FB681B683A
:1025D0002022DA61FB681B685A68FB681B680B499C
:1025E0000A405A60FB68412220219954FB6842222C
:1025F00000219954FB68402200219954002300E0F7
:1026000002231800BD4607B090BDC04600E800FE9A
:1026100090B589B002AFF8600C00100019000A23D1
:10262000FB18221C1A800823FB18021C1A80BB1DF1
:102630000A1C1A80FB6841229B5CDBB2202B00D075
:1026400010E1BB6A002B04D02C23FB181B88002B45
:1026500005D1FB68802292005A64012303E1FB68E4
:1026600040229B5C012B01D10223FCE0FB6840224D
:1026700001219954FFF7F4F903007B6180231902CB
:10268000F8687B6900931923012200F00DFB031EFB
:1026900001D00123E7E0FB68412222219954FB6825
:1026A000422240219954FB6800225A64FB68BA6AAE
:1026B0005A62FB682C22BA1812885A85FB680022DD
:1026C0005A63BB1D1C880823FB181A880A23FB18B1
:1026D0001988F8687B6901933B6B0093230000F035
:1026E0005FFA031E05D0FB684022002199540123A4
:1026F000B9E0FB685B8D9BB2FF2B11D9FB68FF2211
:102700001A85FB681B8DDAB280235C040A23FB1850
:102710001988F868564B0093230000F0E5FB12E09F
:10272000FB685B8D9AB2FB681A85FB681B8DDAB279
:1027300080239C040A23FB181988F8684C4B0093EB
:10274000230000F0D1FB3A6BF8687B69009313001B
:102750000022042100F0A8FA031E01D0012382E028
:10276000FB681B685A6AFB685B6AD2B21A70FB6826
:102770005B6A5A1CFB685A62FB681B8D013B9AB26C
:10278000FB681A85FB685B8D9BB2013B9AB2FB68C4
:102790005A85FB685B8D9BB2002B3AD0FB681B8D82
:1027A000002B36D13A6BF8687B6900931300002246
:1027B000802100F079FA031E01D0012353E0FB6869
:1027C0005B8D9BB2FF2B11D9FB68FF221A85FB683A
:1027D0001B8DDAB280235C040A23FB181988F86881
:1027E00000230093230000F07FFB12E0FB685B8D69
:1027F0009AB2FB681A85FB681B8DDAB280239C04B1
:102800000A23FB181988F86800230093230000F0BE
:102810006BFBFB685B8D9BB2002B94D17A69396BA3
:10282000FB68180000F0BEFA031E01D001231AE075
:10283000FB681B682022DA61FB681B685A68FB682A
:102840001B680C490A405A60FB68412220219954B8
:10285000FB68422200219954FB68402200219954D0
:10286000002300E002231800BD4607B090BDC0461B
:102870000024008000E800FE80B58AB002AFF86056
:102880007A603B600A23FB180A1C1A8000237B61D4
:10289000FB6841229B5CDBB2202B00D0FEE0FB6892
:1028A0001B689A6980231B021A4080231B029A42EC
:1028B00001D10223F3E0FB6840229B5C012B01D194
:1028C0000223ECE0FB68402201219954FB6841227D
:1028D00024219954FB6800225A64FB68DB68012BB1
:1028E00007D10A23FB181B889B059B0D6E4A1A43D0
:1028F00007E00A23FB181B889B059B0DA022920171
:102900001A43FB681B685A60FFF7AAF80300BB6113
:10291000FB681B689B6920221340203B5A425341AD
:10292000DAB21F23FB181A70FB681B689B69102220
:102930001340103B5A425341DAB21E23FB181A705F
:1029400035E03B6801331AD0FFF78AF80200BB6913
:10295000D31A3A689A4202D33B68002B0FD1FB6826
:10296000412220219954FB685B6C20221A43FB68AA
:102970005A64FB6840220021995401238FE0FB68D0
:102980001B689B6920221340203B5A425341DAB214
:102990001F23FB181A70FB681B689B6910221340E9
:1029A000103B5A425341DAB21E23FB181A701F2300
:1029B000FB181B78002B04D11E23FB181B78002B5F
:1029C000BFD0FB681B689B6910221340102B1AD0E4
:1029D0003A68F868BB69009313000022202100F0D8
:1029E00063F9031E01D0012359E0FB681B68202214
:1029F000DA61FB68412220219954FB6840220021C2
:102A0000995400234BE03A68F868BB6900931300BF
:102A10000022202100F048F9031E01D001233EE0EE
:102A2000FB681B681022DA61FB681B682022DA61F0
:102A30007B697A689A4219D1FB681B685A68FB68FF
:102A40001B688021C9010A435A603A68F868BB696B
:102A5000009313000022202100F026F9031E01D06C
:102A600001231CE0FB681B682022DA617B690133CB
:102A70007B617B697A689A4200D92EE7FB68412224
:102A800020219954FB685B6C20221A43FB685A642E
:102A9000FB68402200219954012300E00223180022
:102AA000BD4608B080BDC0460020000280B582B09F
:102AB00000AF78607B6841229B5CDBB21800BD46AA
:102AC00002B080BD80B582B000AF78607B685B6C7F
:102AD0001800BD4602B080BDB0B586B002AFF86048
:102AE0000C00100019000A257B19221C1A800823EB
:102AF000FB18021C1A80BB1D0A1C1A80BB1D1B88F8
:102B0000DAB280235C047B191988F868234B0093A0
:102B1000230000F0E9F97A6A396AFB68180000F0CE
:102B200002F9031E01D0012333E0BB1D1B88012BDA
:102B300007D10823FB181B88DAB2FB681B689A626E
:102B400019E00823FB181B881B0A9BB2DAB2FB684A
:102B50001B689A627A6A396AFB68180000F0E3F829
:102B6000031E01D0012314E00823FB181B88DAB2EE
:102B7000FB681B689A623A6AF8687B6A00931300E4
:102B80000022802100F090F8031E01D0012300E014
:102B900000231800BD4604B0B0BDC0460020008030
:102BA000B0B586B002AFF8600C00100019000A251D
:102BB0007B19221C1A800823FB18021C1A80BB1DDB
:102BC0000A1C1A80BB1D1B88DAB27B191988F868A9
:102BD000234B0093002300F087F97A6A396AFB6877
:102BE000180000F0A0F8031E01D0012333E0BB1D44
:102BF0001B88012B07D10823FB181B88DAB2FB685E
:102C00001B689A6219E00823FB181B881B0A9BB2F9
:102C1000DAB2FB681B689A627A6A396AFB68180044
:102C200000F081F8031E01D0012314E00823FB18F3
:102C30001B88DAB2FB681B689A623A6AF8687B6A9A
:102C4000009313000022402100F02EF8031E01D053
:102C5000012300E000231800BD4604B0B0BDC0460B
:102C60000020008080B582B000AF78607B681B6870
:102C70009B6902221340022B03D17B681B68002250
:102C80009A627B681B689B6901221340012B07D065
:102C90007B681B689A697B681B6801210A439A61FB
:102CA000C046BD4602B080BD80B584B000AFF860BC
:102CB000B9603B60FB1D1A7021E03B6801331ED0F8
:102CC000FEF7CEFE0200BB69D31A3A689A4202D3DD
:102CD0003B68002B13D1FB685B6C20221A43FB6816
:102CE0005A64FB68412220219954FB68422200214A
:102CF0009954FB6840220021995401230FE0FB689E
:102D00001B689B69BA681340BA68D31A5A42534188
:102D1000DBB21A00FB1D1B789A42CED000231800AC
:102D2000BD4604B080BD80B584B000AFF860B96026
:102D30007A602BE07A68B968FB68180000F06EF8DA
:102D4000031E01D0012329E0BB6801331ED0FEF72A
:102D500087FE02007B68D31ABA689A4202D3BB6826
:102D6000002B13D1FB685B6C20221A43FB685A646A
:102D7000FB68412220219954FB684222002199548A
:102D8000FB68402200219954012307E0FB681B687F
:102D90009B6902221340022BCCD100231800BD46B0
:102DA00004B080BD80B584B000AFF860B9607A60CF
:102DB00028E07A68B968FB68180000F02FF8031E55
:102DC00001D0012326E0FEF74BFE02007B68D31AF8
:102DD000BA689A4202D3BB68002B13D1FB685B6CC4
:102DE00020221A43FB685A64FB684122202199542F
:102DF000FB68422200219954FB684022002199542B
:102E0000012307E0FB681B689B6920221340202BED
:102E1000CFD100231800BD4604B080BD80B584B07A
:102E200000AFF860B9607A60FB681B689B6910228C
:102E30001340102B51D121E0BB6801331ED0FEF7A7
:102E40000FFE02007B68D31ABA689A4202D3BB68AD
:102E5000002B13D1FB685B6C20221A43FB685A6479
:102E6000FB68412220219954FB6842220021995499
:102E7000FB6840220021995401232FE0FB681B6866
:102E80009B6920221340202BD6D1FB681B6810229F
:102E9000DA61FB681B682022DA61FB681800FFF723
:102EA000E1FEFB681B685A68FB681B680D490A4015
:102EB0005A60FB685B6C04221A43FB685A64FB6827
:102EC000412220219954FB68422200219954FB6839
:102ED000402200219954012300E000231800BD4640
:102EE00004B080BD00E800FE90B585B000AFF8608A
:102EF000080011007B600A243B19021C1A8009207B
:102F00003B180A1C1A70FB681B685B683A6A510D13
:102F10008022D2000A400E490A43D2431A401100CF
:102F20003B191B889B059A0D3B181B781804FF233F
:102F30001B0403401A437B681A433B6A1A43FB682D
:102F40001B680A435A60C046BD4605B090BDC046E6
:102F5000FF63FF0380B582B000AF786039607B68A3
:102F600041229B5CDBB2202B38D17B6840229B5CEA
:102F7000012B01D1022332E07B68402201219954C8
:102F80007B684122242199547B681B681A687B68FE
:102F90001B6801218A431A607B681B681A687B687A
:102FA0001B6811490A401A607B681B6819687B68B6
:102FB0001B683A680A431A607B681B681A687B685A
:102FC0001B6801210A431A607B6841222021995421
:102FD0007B68402200219954002300E0022318005E
:102FE000BD4602B080BDC046FFEFFFFF80B584B094
:102FF00000AF786039607B6841229B5CDBB2202B9C
:1030000039D17B6840229B5C012B01D1022333E044
:103010007B684022012199547B68412224219954E4
:103020007B681B681A687B681B6801218A431A60E9
:103030007B681B681B68FB60FB68114A1340FB60E0
:103040003B681B02FA681343FB607B681B68FA68E5
:103050001A607B681B681A687B681B6801210A4339
:103060001A607B684122202199547B68402200210C
:103070009954002300E002231800BD4604B080BD2F
:10308000FFF0FFFFB0B58AB000AF78607B68002B1F
:1030900002D1012300F056FBCD4BDB680C2213401C
:1030A0003B62CB4BDA6880235B021340FB617B6899
:1030B0001B680122134000D17CE03B6A082B07D03B
:1030C0003B6A0C2B11D1FA6980235B029A420CD126
:1030D000BF4B1A6880239B02134000D169E07B68D4
:1030E0005B68002B65D101232CE37B685A68802341
:1030F0005B029A4207D1B64B1A68B54B8021490250
:103100000A431A6027E07B685A68A023DB029A42D0
:103110000ED1AF4B1A68AE4B8021C9020A431A6028
:10312000AB4B1A68AA4B802149020A431A6012E08D
:10313000A74B1A68A64BA7490A401A60A44B1A6805
:1031400080235B021340FB60FB68A14B1A68A04B15
:10315000A1490A401A607B685B68002B14D0FEF717
:103160007FFC0300BB6108E0FEF77AFC0200BB694C
:10317000D31A642B01D90323E4E2954B1A68802308
:103180009B021340F0D015E0FEF76AFC0300BB6120
:1031900008E0FEF765FC0200BB69D31A642B01D975
:1031A0000323CFE28A4B1A6880239B021340F0D19D
:1031B00000E0C0467B681B680222134000D18AE011
:1031C0007B68DB687B613B6A042B05D03B6A0C2B78
:1031D0003DD1FB69002B3AD17D4B1B680422134083
:1031E00004D07B69002B01D10123ABE2784B5B68F3
:1031F0007A4A134019007B681B691A02744B0A4310
:103200005A60734B1B68092293431900704B7A690B
:103210000A431A6000F0C6FB01006D4BDB681B0916
:103220000F2213406E4AD35C0A00DA406D4B1A60DD
:1032300013257C190020FEF7DDFB030023702A0014
:10324000BB181B78002B46D0BB181B787AE27B6931
:10325000002B27D05E4B1B680922934319005C4B5F
:103260007A690A431A60FEF7FBFB0300BB6108E0C2
:10327000FEF7F6FB0200BB69D31A022B01D9032328
:1032800060E2534B1B6804221340F1D0504B5B6843
:10329000524A134019007B681B691A024C4B0A43BF
:1032A0005A6018E04A4B1A68494B01218A431A6058
:1032B000FEF7D6FB0300BB6108E0FEF7D1FB02007E
:1032C000BB69D31A022B01D903233BE2404B1B6895
:1032D00004221340F1D17B681B681022134000D1F7
:1032E0009EE03B6A002B3FD1394B1A6880239B003C
:1032F000134005D07B689B69002B01D1012321E29B
:10330000334B5B68384A134019007B681A6A304BAC
:103310000A435A602E4B5B681B02190A7B68DB6903
:103320001A062B4B0A435A607B681B6A5B0B0133FE
:10333000802212029A40264BDB681B090F210B40AA
:103340002749CB5CDA40274B1A6013257C190020F3
:10335000FEF750FB030023702A00BB181B78002BDC
:103360005ED0BB181B78EDE17B689B69002B3DD0DC
:10337000174B1A68164B802149000A431A60FEF762
:103380006FFB0300BB6108E0FEF76AFB0200BB694C
:10339000D31A022B01D90323D4E10D4B1A688023E1
:1033A0009B001340F0D00A4B5B680F4A1340190092
:1033B0007B681A6A064B0A435A60054B5B681B021E
:1033C000190A7B68DB691A06014B0A435A6027E039
:1033D00000100240FFFFFEFFFFFFFBFFFFE0FFFFCB
:1033E000206D00084C140020FF1FFFFFBE4B1A6821
:1033F000BD4BBE490A401A60FEF732FB0300BB61B9
:1034000008E0FEF72DFB0200BB69D31A022B01D99D
:10341000032397E1B44B1A6880239B001340F0D13B
:103420007B681B680822134036D07B685B69002BE1
:1034300019D0AD4B1A6DAC4B01210A431A65FEF74A
:103440000FFB0300BB6108E0FEF70AFB0200BB694B
:10345000D31A022B01D9032374E1A34B1B6D022263
:103460001340F1D018E0A04B1A6D9F4B01218A4305
:103470001A65FEF7F5FA0300BB6108E0FEF7F0FA03
:103480000200BB69D31A022B01D903235AE1964BE0
:103490001B6D02221340F1D17B681B68042213408C
:1034A00000D1AEE027203B1800221A708E4B9A6B99
:1034B00080235B05134009D18B4B9A6B8A4B80218B
:1034C00049050A439A633B1801221A70884B1A680F
:1034D00080235B0013401AD1854B1A68844B8021EE
:1034E00049000A431A60FEF7BBFA0300BB6108E01B
:1034F000FEF7B6FA0200BB69D31A642B01D9032385
:1035000020E17B4B1A6880235B001340F0D07B687E
:103510009A6880235B009A4207D1734B1A6D724BF5
:10352000802149000A431A6531E07B689B68002BC3
:103530000CD16D4B1A6D6C4B6C490A401A656A4B85
:103540001A6D694B6B490A401A6520E07B689A68DE
:10355000A023DB009A420ED1634B1A6D624B80218F
:10356000C9000A431A65604B1A6D5F4B8021490000
:103570000A431A650BE05C4B1A6D5B4B5B490A40D2
:103580001A65594B1A6D584B5A490A401A657B689F
:103590009B68002B15D0FEF763FA0300BB6109E0BE
:1035A000FEF75EFA0200BB69D31A534A934201D96F
:1035B0000323C7E04C4B1A6D80239B001340EFD0D0
:1035C00014E0FEF74DFA0300BB6109E0FEF748FA8C
:1035D0000200BB69D31A484A934201D90323B1E0E0
:1035E000414B1A6D80239B001340EFD12723FB181A
:1035F0001B78012B05D13C4B9A6B3B4B3F490A4052
:103600009A637B685B6A002B00D19AE03B6A0C2BC3
:1036100064D07B685B6A022B45D1334B1A68324B0E
:1036200037490A401A60FEF71BFA0300BB6108E045
:10363000FEF716FA0200BB69D31A022B01D9032345
:1036400080E0294B1A6880239B041340F0D1264B5D
:10365000DB682C4A134019007B689A6A7B68DB6A36
:103660001A437B681B6B1A431F4B0A43DA601E4BDD
:103670001A681D4B802149040A431A60FEF7F0F9CD
:103680000300BB6108E0FEF7EBF90200BB69D31A47
:10369000022B01D9032355E0134B1A6880239B04A6
:1036A0001340F0D04DE0104B1A680F4B14490A40FC
:1036B0001A60FEF7D5F90300BB6108E0FEF7D0F908
:1036C0000200BB69D31A022B01D903233AE0064B4F
:1036D0001A6880239B041340F0D132E07B685B6A58
:1036E000012B11D101232DE000100240FFFEFFFF4E
:1036F00000700040FFFBFFFF88130000FFFFFFEF9B
:10370000FFFFFFFEFFFF02FF104BDB68FB61FA6962
:1037100080235B021A407B689B6A9A420FD1FA6948
:10372000F0239B031A407B68DB6A9A4207D1FA694F
:10373000C0231B041A407B681B6B9A4201D00123F3
:1037400000E000231800BD460AB0B0BD00100240E2
:10375000B0B584B000AF786039607B68002B01D1D0
:1037600001230DE1884B1B68012213403A689A42FD
:1037700011D9854B1B68012293431900824B3A688B
:103780000A431A60804B1B68012213403A689A4230
:1037900001D00123F4E07B681B680222134009D0AA
:1037A0007A4BDB68F022934319007B689A68774B69
:1037B0000A43DA607B681B680122134000D189E06C
:1037C0007B685B68022B07D1704B1A6880239B02D1
:1037D000134020D10123D3E07B685B68032B07D122
:1037E0006A4B1A6880239B04134014D10123C7E05D
:1037F0007B685B68012B06D1644B1B680422134075
:1038000009D10123BCE0614B1A6880239B0013405F
:1038100001D10123B4E05D4BDB680322934319001F
:103820007B685A68594B0A43DA60FEF719F90300BE
:10383000FB607B685B68022B11D109E0FEF710F991
:103840000200FB68D31A524A934201D9032397E03E
:103850004E4BDB680C221340082BEFD13AE07B681B
:103860005B68032B11D109E0FEF7FAF80200FB6850
:10387000D31A474A934201D9032381E0434BDB68C3
:103880000C2213400C2BEFD124E07B685B68012BEA
:103890001BD109E0FEF7E4F80200FB68D31A3C4AAA
:1038A000934201D903236BE0384BDB680C221340B1
:1038B000042BEFD10EE0FEF7D3F80200FB68D31A19
:1038C000334A934201D903235AE0304BDB680C2280
:1038D0001340F0D12C4B1B68012213403A689A42E6
:1038E00011D2294B1B68012293431900264B3A68D9
:1038F0000A431A60244B1B68012213403A689A421B
:1039000001D001233CE07B681B680422134009D0EE
:103910001E4BDB681F4A134019007B68DA681B4B9B
:103920000A43DA607B681B68082213400AD0174BF1
:10393000DB68194A134019007B681B69DA00134BD6
:103940000A43DA6000F02EF80100104BDB681B0917
:103950000F221340114AD35C0A00DA40104B1A6060
:103960000B257C190020FEF745F8030023702A0080
:10397000BB181B78002B02D0BB181B7800E000237B
:103980001800BD4604B0B0BD002002400010024047
:1039900088130000FFF8FFFFFFC7FFFF206D00083E
:1039A0004C14002080B586B000AF3C4BDB68FB6058
:1039B000FB680C2213400C2B13D05CD8042B02D0D4
:1039C000082B0BD057E0354B1B681022134002D058
:1039D000334B3B615DE0334B3B615AE0324B3B6123
:1039E00057E0FB689B0C0F221340304AD35CBB604E
:1039F000FB689B0D0322134001337B60274BDA6881
:103A000080235B0213400FD0B9680A005201521A9A
:103A100093019B1ADB005B185B0279681800FCF7C6
:103A200073FB03007B6123E01C4B1B6810221340D7
:103A30000FD0B9680A005201521A93019B1ADB0099
:103A40005B181B0279681800FCF75EFB03007B61C2
:103A50000EE0B9680A005201521A93019B1ADB006A
:103A60005B189B0279681800FCF74EFB03007B6132
:103A70007B693B610DE0094B5B685B0B07221340E0
:103A80003B603B680133802212029A4013003B6185
:103A9000C0463B691800BD4606B080BD001002401C
:103AA00000093D000024F40000127A00386D00087F
:103AB00080B500AF024B1B681800BD4680BDC046F4
:103AC0004C14002080B500AFFFF7F2FF0100064B59
:103AD000DB681B0A07221340044AD35CD9400B0061
:103AE0001800BD4680BDC04600100240306D000881
:103AF00080B500AFFFF7DCFF0100064BDB68DB0A97
:103B000007221340044AD35CD9400B001800BD467D
:103B100080BDC04600100240306D000880B586B000
:103B200000AF78607B681B682022134000D1C6E09C
:103B300017203B1800221A70894B9A6B80235B0573
:103B4000134009D1864B9A6B854B802149050A4366
:103B50009A633B1801221A70824B1A6880235B001B
:103B600013401AD17F4B1A687E4B802149000A43CB
:103B70001A60FDF775FF03003B6108E0FDF770FF79
:103B800002003B69D31A642B01D90323E3E0754B90
:103B90001A6880235B001340F0D0714B1A68C02371
:103BA0009B031340FB607B685A68C0239B03134050
:103BB000FA689A4213D07B685A68C0239B021A4065
:103BC000C0239B029A420AD1654B1A6880239B024C
:103BD0001A4080239B029A4201D10123BBE0604B33
:103BE0001A6DC0239B021340FB60FB68002B3BD087
:103BF0007B685A68C0239B021340FA689A4233D00C
:103C00007B681B68202213402ED0554B1B6D564AF3
:103C10001340FB60524B1A6D514B802109030A433C
:103C20001A654F4B1A6D4E4B50490A401A654C4B62
:103C3000FA681A65FA6880235B00134014D0FDF718
:103C40000FFF03003B6109E0FDF70AFF02003B693B
:103C5000D31A474A934201D903237CE0404B1A6DA3
:103C600080239B001340EFD07B685A68C0239B02DF
:103C70001A40C0239B029A420CD1394B1B683D4A23
:103C8000134019007B685A68C0239B031A40344BC9
:103C90000A431A60324B196D7B685A68C0239B0235
:103CA0001A402F4B0A431A651723FB181B78012B68
:103CB00005D12B4B9A6B2A4B2F490A409A637B689C
:103CC0001B680122134009D0254BDB6C0322934370
:103CD00019007B689A68224B0A43DA647B681B6888
:103CE0000222134009D01E4BDB6C0C2293431900B7
:103CF0007B68DA681A4B0A43DA647B681B68042223
:103D0000134009D0164BDB6C1C4A134019007B682A
:103D10001A69134B0A43DA647B681B680822134054
:103D200009D00F4BDB6C164A134019007B685A69A7
:103D30000B4B0A43DA647B681B688022134009D06E
:103D4000074BDB6C0F4A134019007B689A69044BE0
:103D50000A43DA6400231800BD4606B080BDC046A1
:103D60000010024000700040FFFFFCFFFFFFF7FF64
:103D700088130000FFFFCFFFFFFFFFEFFFF3FFFF00
:103D8000FFCFFFFFFFFFF3FF80B582B000AF786089
:103D90007B68002B01D1012344E07B685B6F002B23
:103DA00007D17B687022002199547B68180001F0CC
:103DB0005DFE7B6824225A677B681B681A687B68F3
:103DC0001B6801218A431A607B68180000F020FB01
:103DD0000300012B01D1012324E07B685B6A002BE7
:103DE00003D07B68180000F00FFE7B681B685A68E0
:103DF0007B681B680D490A405A607B681B689A689B
:103E00007B681B682A218A439A607B681B681A6852
:103E10007B681B6801210A431A607B68180000F068
:103E2000A7FE03001800BD4602B080BDFFB7FFFF2C
:103E300080B582B000AF78607B68002B01D1012390
:103E40004CE07B685B6F002B07D17B687022002100
:103E500099547B68180001F009FE7B6824225A6798
:103E60007B681B681A687B681B6801218A431A609B
:103E70007B68180000F0CCFA0300012B01D101236C
:103E80002CE07B685B6A002B03D07B68180000F095
:103E9000BBFD7B681B685A687B681B6811490A4038
:103EA0005A607B681B689A687B681B6822218A437A
:103EB0009A607B681B689A687B681B6808210A43C4
:103EC0009A607B681B681A687B681B6801210A433B
:103ED0001A607B68180000F04BFE03001800BD4616
:103EE00002B080BDFFB7FFFF80B58AB002AFF860B7
:103EF000B9603B60BB1D1A80FB685B6F202B00D054
:103F000094E0BB68002B03D0BB1D1B88002B01D1A4
:103F100001238CE0FB689A6880235B019A4209D1F7
:103F2000FB681B69002B05D1BB680122134001D03F
:103F300001237CE0FB6870229B5C012B01D10223F2
:103F400075E0FB68702201219954FB680022DA6752
:103F5000FB6821225A67FDF783FD03007B61FB6844
:103F6000BA1D502112885A52FB68BA1D522112887C
:103F70005A52FB689A6880235B019A4208D1FB6819
:103F80001B69002B04D10023FB61BB68BB6103E00C
:103F9000BB68FB610023BB612CE07A69F8683B6871
:103FA000009313000022802100F026FE031E01D0A2
:103FB00003233CE0FB69002B0BD1BB691B881A0073
:103FC000FB681B68D205D20D9A62BB690233BB61E4
:103FD00007E0FB691A78FB681B689A62FB6901338A
:103FE000FB61FB6852229B5A9BB2013B99B2FB6872
:103FF00052229952FB6852229B5A9BB2002BCCD181
:104000007A69F8683B68009313000022402100F0B1
:10401000F3FD031E01D0032309E0FB6820225A6749
:10402000FB68702200219954002300E0022318004D
:10403000BD4608B080BD000080B584B000AFF86018
:10404000B960BB1D1A80FB689B6F202B00D09FE0DE
:10405000BB68002B03D0BB1D1B88002B01D10123A3
:1040600097E0FB689A6880235B019A4209D1FB685C
:104070001B69002B05D1BB680122134001D001232D
:1040800087E0FB6870229B5C012B01D1022380E05A
:10409000FB68702201219954FB68BA685A65FB6875
:1040A000BA1D582112885A52FB68BA1D5A2112882B
:1040B0005A52FB6800221A66FB689A6880235B01EB
:1040C0009A420DD1FB681B69002B04D1FB685C226E
:1040D000324999522EE0FB685C22FF21995229E077
:1040E000FB689B68002B0DD1FB681B69002B04D17A
:1040F000FB685C22FF2199521CE0FB685C227F2157
:10410000995217E0FB689A6880235B059A420DD1AB
:10411000FB681B69002B04D1FB685C227F2199524C
:1041200008E0FB685C223F21995203E0FB685C22B7
:1041300000219952FB680022DA67FB6822229A6705
:10414000FB681B689A68FB681B6801210A439A6038
:10415000FB689A6880235B019A4207D1FB681B6960
:10416000002B03D1FB680E4A1A6602E0FB680D4A79
:104170001A66FB68702200219954FB681B681A6854
:10418000FB681B68902149000A431A60002300E085
:1041900002231800BD4604B080BDC046FF010000E8
:1041A000E94D0008314D000880B588B000AF786057
:1041B0007B681B68DB69FB617B681B681B68BB61F4
:1041C0007B681B689B687B61FB690F2213403B6126
:1041D0003B69002B12D1FB69202213400ED0BB6932
:1041E000202213400AD07B681B6E002B00D1F5E023
:1041F0007B681B6E7A6810009847EFE03B69002BE4
:1042000000D1B8E07B690122134005D1BA6990233F
:104210005B00134000D1AEE0FB69012213400ED0D9
:10422000BA6980235B00134009D07B681B680122B8
:104230001A627B68DB6F01221A437B68DA67FB69CD
:10424000022213400DD07B690122134009D07B6804
:104250001B6802221A627B68DB6F04221A437B68A8
:10426000DA67FB69042213400DD07B6901221340F9
:1042700009D07B681B6804221A627B68DB6F02220C
:104280001A437B68DA67FB690822134011D0BB69C7
:104290002022134003D17B690122134009D07B689F
:1042A0001B6808221A627B68DB6F08221A437B684E
:1042B000DA677B68DB6F002B00D191E0FB6920227D
:1042C00013400CD0BB692022134008D07B681B6EC2
:1042D000002B04D07B681B6E7A68100098477B68BF
:1042E000DB6FFB607B681B689B6840221340402BA0
:1042F00003D0FB680822134033D07B68180000F01D
:10430000C5FC7B681B689B6840221340402B23D16F
:104310007B681B689A687B681B6840218A439A60A7
:104320007B68DB6E002B12D07B68DB6E2F4A9A63B2
:104330007B68DB6E1800FDF795FC031E19D07B68C7
:10434000DB6E9A6B7B68DB6E1800904711E07B6830
:10435000180000F055F80CE07B68180000F050F8E9
:1043600007E07B68180000F04BF87B680022DA67F2
:1043700036E0C04634E0FA6980235B0313400ED078
:104380007A698023DB03134009D07B681B68802295
:1043900052031A627B68180000F082FD23E0FB697B
:1043A000802213400DD0BB698022134009D07B6866
:1043B0005B6E002B16D07B685B6E7A6810009847A6
:1043C00010E0FB69402213400DD0BB69402213402E
:1043D00009D07B68180000F090FC04E0C04602E0C1
:1043E000C04600E0C046BD4608B080BDCD4C0008C8
:1043F00080B582B000AF7860C046BD4602B080BDD7
:1044000080B582B000AF7860C046BD4602B080BDC6
:10441000B0B58EB000AFF8611B2318215B18DB1913
:1044200010221A700023FB6213235B18DB19002291
:104430001A7000237B62FB699A68FB691B691A4347
:10444000FB695B691A43FB69DB6913437B63FB69A7
:104450001B681B68C04A13401900FB691B687A6B14
:104460000A431A60FB691B685B68BC4A1340190069
:10447000FB69DA68FB691B680A435A60FB699B6940
:104480007B63FB691B68B64A934204D0FB691B6AD5
:104490007A6B13437B63FB691B689B68B14A1340CB
:1044A0001900FB691B687A6B0A439A60FB691B68F9
:1044B000AD4A934231D1AD4BDB6C03221340032B49
:1044C0001DD023D8022B0CD020D8002B02D0012BDA
:1044D0000ED01BE01B2318229B18DB1901221A7037
:1044E0009CE01B2318229B18DB1902221A7095E00E
:1044F0001B2318229B18DB1904221A708EE01B2341
:1045000018229B18DB1908221A7087E01B23182237
:104510009B18DB1910221A7080E0FB691B68944A13
:10452000934231D1914BDB6C0C2213400C2B1DD0EC
:1045300023D8082B0CD020D8002B02D0042B0ED06F
:104540001BE01B2318229B18DB1900221A7065E060
:104550001B2318229B18DB1902221A705EE01B2312
:1045600018229B18DB1904221A7057E01B2318220B
:104570009B18DB1908221A7050E01B2318229B1885
:10458000DB1910221A7049E0FB691B68744A9342D8
:104590003ED1764BDA6CC0231B011340C0221201BE
:1045A000934227D0C022120193422AD880221201BE
:1045B000934211D080221201934222D8002B04D0C2
:1045C0008022D20093420ED01BE01B2318229B189E
:1045D000DB1900221A7021E01B2318229B18DB191B
:1045E00002221A701AE01B2318229B18DB190422DE
:1045F0001A7013E01B2318229B18DB1908221A706B
:104600000CE01B2318229B18DB1910221A7005E0FE
:104610001B2318229B18DB1910221A70FB691B68D8
:104620004F4A934200D082E01B2318229B18DB19CB
:104630001B78082B1DD020DC042B15D01DDC002B93
:1046400002D0022B05D018E0FFF73CFA03007B6292
:104650001AE0464B1B681022134002D0454B7B6288
:1046600012E0454B7B620FE0FFF79CF903007B6291
:104670000AE080231B027B6206E0132318229B18AA
:10468000DB1901221A70C0467B6A002B00D19FE122
:10469000FB695A6813005B009B187A6A9A4205D33B
:1046A000FB695B681B037A6A9A4206D913231822B6
:1046B0009B18DB1901221A708AE17B6A3B61002397
:1046C0007B6139697A690B001B0E100005021D43DE
:1046D0000B001C02FB695B685B08BB600023FB608E
:1046E000B868F96800196941FB695B683B600023A1
:1046F0007B603A687B68FBF793FD02000B001300B8
:10470000FB62FA6AC0239B009A4209D3FA6A8023AB
:104710005B039A4204D2FB691B68FA6ADA6057E1CC
:10472000132318229B18DB1901221A7050E1FB6930
:10473000DA6980231B029A4200D0BDE01B231822B5
:104740009B18DB191B78082B00D982E09A000B4BD1
:10475000D3181B689F46C046F369FFEFFFCFFFFFEA
:1047600000480040FFF4FFFF003801400010024005
:104770000044004000093D000024F400D86C00080B
:10478000FFF7A0F903005A00FB695B685B08D218C9
:10479000FB695B6819001000FBF7B6FC03009BB2D5
:1047A000FB625DE0FFF7A4F903005A00FB695B6858
:1047B0005B08D218FB695B6819001000FBF7A4FCCA
:1047C00003009BB2FB624BE0894B1B681022134035
:1047D0000ED0FB695B685B08864A9A18FB695B68C8
:1047E00019001000FBF790FC03009BB2FB6237E05E
:1047F000FB695B685B08804A9A18FB695B68190073
:104800001000FBF781FC03009BB2FB6228E0FFF77E
:10481000C9F803005A00FB695B685B08D218FB69A2
:104820005B6819001000FBF76FFC03009BB2FB6292
:1048300016E0FB695B685B08802252029A18FB69EC
:104840005B6819001000FBF75FFC03009BB2FB6282
:1048500006E0132318229B18DB1901221A70C046A8
:10486000FB6A0F2B21D9FA6A80235B029A421CD281
:10487000FB6A9AB20A2018240319DB190F218A4314
:104880001A80FB6A5B089BB20722134099B2031996
:10489000DB190219D21912880A431A80FB691B68B6
:1048A0000219D2191288DA6092E0132318229B1899
:1048B000DB1901221A708BE01B2318229B18DB19CD
:1048C0001B78082B6AD89A004C4BD3181B689F465C
:1048D000FFF7F8F80200FB695B685B08D218FB6918
:1048E0005B6819001000FBF70FFC03009BB2FB6232
:1048F0005BE0FFF7FDF80200FB695B685B08D2181C
:10490000FB695B6819001000FBF7FEFB03009BB21C
:10491000FB624AE0364B1B68102213400ED0FB6945
:104920005B685B08364A9A18FB695B6819001000DF
:10493000FBF7EAFB03009BB2FB6236E0FB695B68B6
:104940005B08304A9A18FB695B6819001000FBF796
:10495000DBFB03009BB2FB6227E0FFF723F80200BA
:10496000FB695B685B08D218FB695B681900100083
:10497000FBF7CAFB03009BB2FB6216E0FB695B68B6
:104980005B08802212029A18FB695B68190010000C
:10499000FBF7BAFB03009BB2FB6206E0132318226D
:1049A0009B18DB1901221A70C046FB6A0F2B09D92C
:1049B000FA6A80235B029A4204D2FB691B68FA6A96
:1049C000DA6005E0132318229B18DB1901221A7004
:1049D000FB6900221A66FB6900225A66132318221B
:1049E0009B18DB191B781800BD460EB0B0BDC04641
:1049F0000010024000127A000048E801FC6C000838
:104A000000093D000024F40080B582B000AF78605A
:104A10007B685B6A012213400BD07B681B685B6874
:104A20004A4A134019007B689A6A7B681B680A43EC
:104A30005A607B685B6A022213400BD07B681B685C
:104A40005B68434A134019007B68DA6A7B681B681D
:104A50000A435A607B685B6A042213400BD07B6870
:104A60001B685B683B4A134019007B681A6B7B68C4
:104A70001B680A435A607B685B6A082213400BD0AC
:104A80007B681B685B68344A134019007B685A6B6B
:104A90007B681B680A435A607B685B6A102213407C
:104AA0000BD07B681B689B682C4A134019007B68FD
:104AB0009A6B7B681B680A439A607B685B6A20225A
:104AC00013400BD07B681B689B68254A1340190074
:104AD0007B68DA6B7B681B680A439A607B685B6A59
:104AE000402213401DD07B681B685B681D4A134041
:104AF00019007B681A6C7B681B680A435A607B68E4
:104B00001A6C80235B039A420BD17B681B685B683D
:104B1000154A134019007B685A6C7B681B680A436E
:104B20005A607B685B6A802213400BD07B681B68ED
:104B30005B680E4A134019007B689A6C7B681B689F
:104B40000A435A60C046BD4602B080BDFFFFFDFF6C
:104B5000FFFFFEFFFFFFFBFFFF7FFFFFFFEFFFFFFA
:104B6000FFDFFFFFFFFFEFFFFFFF9FFFFFFFF7FFED
:104B700080B586B002AF78607B680022DA67FCF708
:104B80006FFF0300FB607B681B681B6808221340F3
:104B9000082B0CD1FB68802291037868154A00929B
:104BA000002200F029F8031E01D003231EE07B68D9
:104BB0001B681B6804221340042B0CD1FB68802265
:104BC000D10378680B4A0092002200F015F8031E0A
:104BD00001D003230AE07B6820225A677B682022E9
:104BE0009A677B6870220021995400231800BD4603
:104BF00004B080BDFFFFFF0180B584B000AFF86056
:104C0000B9603B60FB1D1A7029E0BB69013326D0F7
:104C1000FCF726FF02003B68D31ABA699A4202D316
:104C2000BB69002B1BD1FB681B681A68FB681B68FB
:104C300015490A401A60FB681B689A68FB681B6884
:104C400001218A439A60FB6820225A67FB68202270
:104C50009A67FB6870220021995403230FE0FB68D8
:104C60001B68DB69BA681340BA68D31A5A425341C9
:104C7000DBB21A00FB1D1B789A42C6D00023180035
:104C8000BD4604B080BDC0465FFEFFFF80B582B068
:104C900000AF78607B681B681A687B681B680A49EC
:104CA0000A401A607B681B689A687B681B68012150
:104CB0008A439A607B6820229A677B6800221A6682
:104CC000C046BD4602B080BDDFFEFFFF80B584B0A8
:104CD00000AF78607B689B6AFB60FB685A2200210A
:104CE0009952FB68522200219952FB681800FFF785
:104CF00087FBC046BD4604B080BD80B582B000AF22
:104D000078607B681B681A687B681B6840218A434F
:104D10001A607B6820225A677B6800225A667B688B
:104D20001800FFF765FBC046BD4602B080BD00001D
:104D300080B584B000AF78600E203B187A685C21A3
:104D4000525A1A807B689B6F222B3FD17B681B686D
:104D50005A6A0C217B181A807B181B88DAB23B1820
:104D60001B88D9B27B685B6D0A40D2B21A707B682F
:104D70005B6D5A1C7B685A657B685A229B5A9BB2B2
:104D8000013B99B27B685A2299527B685A229B5AFE
:104D90009BB2002B22D17B681B681A687B681B685A
:104DA00010490A401A607B681B689A687B681B6818
:104DB00001218A439A607B6820229A677B680022DF
:104DC0001A667B68180000F0EDFA07E07B681B6844
:104DD0009A697B681B6808210A439A61C046BD46F0
:104DE00004B080BDDFFEFFFF80B584B000AF786007
:104DF0000E203B187A685C21525A1A807B689B6FA0
:104E0000222B3FD17B681B685A6A0C217B181A80C1
:104E10007B685B6DBB607B183A181B881288134057
:104E20009AB2BB681A807B685B6D9A1C7B685A6576
:104E30007B685A229B5A9BB2013B99B27B685A22EB
:104E400099527B685A229B5A9BB2002B22D17B68D5
:104E50001B681A687B681B6810490A401A607B68E7
:104E60001B689A687B681B6801218A439A607B688B
:104E700020229A677B6800221A667B68180000F07F
:104E800091FA07E07B681B689A697B681B680821B8
:104E90000A439A61C046BD4604B080BDDFFEFFFFF5
:104EA00080B582B000AF7860C046BD4602B080BD1C
:104EB00080B582B000AF00237B60194B194A1A609D
:104EC000194B1B68591C184A1160002B23D1144B35
:104ED0001800FDF7EBFD031E1DD1114B180000F06B
:104EE00031F97B68002B16D10D4B180000F0DCF86F
:104EF000031E03D008235B427B600CE0084B0021BB
:104F00001800FEF727F8031E03D008235B427B60DE
:104F100001E000237B607B681800BD4602B080BDC5
:104F20001C150020005400406815002080B582B098
:104F300000AF00237B600F4B1B68002B15D00D4B7F
:104F40001B685A1E0B4B1A600A4B1B68002B0CD1B6
:104F5000094B180000F02CF9074B1800FDF7EAF98F
:104F6000031E02D008235B427B607B681800BD46AD
:104F700002B080BD681500201C15002090B585B0DA
:104F800000AF02003960BB1D1A800023FB60802344
:104F90005C013A68BB1D198806482300FDF76CFCCC
:104FA000031E02D003235B42FB60FB681800BD4672
:104FB00005B090BD1C150020B0B58AB004AF040048
:104FC0000800BA6019000E257B19221C1A800C24D7
:104FD0003B19021C1A80BB1D0A1C1A8000237B612E
:104FE0003B191A887B191988104880235B010293AA
:104FF000BB1D1B880193BB6800930223FDF7DAF900
:10500000031E0DD0094B1800FDF75CFD0300042BB7
:1050100003D166235B427B6102E004235B427B6138
:105020007B691800BD4606B0B0BDC0461C15002007
:10503000B0B58AB004AF04000800BA6019000E25AC
:105040007B19221C1A800C243B19021C1A80BB1DE0
:105050000A1C1A8000237B613B191A887B19198866
:10506000104880235B010293BB1D1B880193BB6822
:1050700000930223FDF7CCFA031E0DD0094B180054
:10508000FDF720FD0300042B03D066235B427B6108
:1050900002E004235B427B617B691800BD4606B0D9
:1050A000B0BDC0461C15002090B585B000AF78603B
:1050B0000F243B1900221A707B68204A1A607B6813
:1050C0001F4A5A607B6800229A607B680122DA607E
:1050D0007B6800221A617B6800225A617B6800228B
:1050E0009A617B680022DA617B6800221A627B6821
:1050F0001800FDF789F8031E02D03B1901221A702F
:105100007B6800211800FDF725FF031E03D00F2345
:10511000FB1801221A707B6800211800FDF766FF5A
:10512000031E03D00F23FB1801221A700F23FB1854
:105130001B781800BD4605B090BDC0460054004025
:105140001A06100080B588B000AF7860164BDA6A96
:10515000154B02210A43DA62134BDB6A0222134029
:10516000BB60BB680C217B18C0221A607B1812221E
:105170005A607B1801229A607B180322DA607B1840
:1051800001221A617B18094A19001000FCF7B2FDD0
:10519000054B9A6B044B802189030A439A63C046EE
:1051A000BD4608B080BDC04600100240000400505B
:1051B00080B582B000AF7860074B9A6B064B074909
:1051C0000A409A63064BC0211800FCF709FFC0464D
:1051D000BD4602B080BDC04600100240FFFFDFFFA9
:1051E0000004005090B589B000AF0C243B191800A2
:1051F00014231A00002100F0F4FE594BDA6A584BD0
:1052000004210A43DA62564BDB6A04221340BB6076
:10521000BB68534BDA6A524B01210A43DA62504BA6
:10522000DB6A012213407B607B684D4BDA6A4C4B92
:1052300002210A43DA624A4BDB6A022213403B60D6
:105240003B68A023DB050022F4211800FCF7BFFF18
:10525000444B002203211800FCF7B9FF3B19C02280
:1052600012021A603B1903225A603B1900229A600D
:105270003B193D4A19001000FCF73CFD3B193B4A25
:105280001A603B1903225A603B1900229A603A19AE
:10529000A023DB0511001800FCF72CFD3B19F422BC
:1052A0001A603B1901225A603B1900229A603B198F
:1052B0000022DA603A19A023DB0511001800FCF780
:1052C00019FD3B1908221A603B19294A5A603B19FB
:1052D00000229A603A19A023DB0511001800FCF7A0
:1052E00009FD3B1903221A603B1901225A603B1940
:1052F00000229A603B190022DA603B19194A190012
:105300001000FCF7F7FC3B19802252001A603B1991
:1053100000225A603B1900229A603A19A023DB054B
:1053200011001800FCF7E6FC3B1938221A603B1903
:1053300003225A603B1900229A603B19094A19005E
:105340001000FCF7D7FC002200210620FCF758FCD7
:105350000620FCF76AFCC046BD4609B090BDC046B9
:1053600000100240000400500008005003980000A4
:105370000000111080B500AF034B1800FEF714FFBA
:10538000C046BD4680BDC0467815002080B500AF40
:10539000034B1800FEF708FFC046BD4680BDC0465F
:1053A000F8150020B0B590B000AF78607B681B683E
:1053B000324A934252D1324B1B68002B0DD12C2123
:1053C0007B18304A31CA31C311CA11C379182E482B
:1053D00064231322FEF788FD11E0294B1B6864212A
:1053E0001800FAF717FF0B1E09D128217B182E226F
:1053F0001A807918244864230122FEF775FD234B97
:105400001A781F4B1B68D243D1B2214AD1541C4B8E
:105410001B685A1C1A4B1A60194B1B681D4A934291
:1054200015D9174B00221A600C217B181A4A31CA71
:1054300031C331CA31C312781A7079181248642303
:105440001822FEF751FD124B1800FBF7EFFF0F4932
:105450007B6801221800FEF7EFFD0AE07B681B68FD
:105460000E4A934205D10949074864230122FEF7F9
:105470003BFDC046BD4610B0B0BDC046003801403F
:1054800070150020346C0008781500206C15002081
:10549000C400002087130000486C0008004400404E
:1054A000B0B59EB000AFFCF785FA00F0ABF8FFF79F
:1054B00099FE00F07BFA00F0A9FAFCF783F9FBF7FC
:1054C0006DFF1920FCF7D6FA00237B670DE0454AF3
:1054D0007B6FD3181B78DB43D9B2424A7B6FD3185A
:1054E0000A1C1A707B6F01337B677B6F3E4A9342C5
:1054F000EDD93C4B1800FBF799FF3220FCF7BAFAC4
:1055000050217B18394A31CA31C331CA31C311CA5B
:1055100011C312881A800C007B181800FAF796FF46
:1055200003009BB2013B9AB2391931486423FEF75C
:10553000DBFC304B1B689B68180000F013FC32202A
:10554000FCF798FA28217B182B4A31CA31C331CA9B
:1055500031C331CA31C312681A600C007B181800BD
:10556000FAF774FF03009BB2013B9AB23919204845
:105570006423FEF7B9FC1F4B1B689B68180000F002
:10558000F1FB002200211B20FCF73AFB1B20FCF75B
:105590004CFB1A49164B01221800FEF74DFD322034
:1055A000FCF768FA3B00164A13CA13C313CA13C3A5
:1055B00013CA13C312881A803B001800FAF746FF7B
:1055C00003009BB2013B9AB2390009486423FEF7FD
:1055D0008BFC084B1B689B68180000F0C3FBFCF7B2
:1055E000F8F8FCE7C400002087130000646C000892
:1055F0007815002050140020886C00086C150020DD
:10560000B06C000890B59BB000AF34243B19180073
:1056100034231A00002100F0E4FC2023FB181800BA
:1056200014231A00002100F0DCFC3B1D18001C2391
:105630001A00002100F0D5FC274B1B68274A1A40AE
:10564000254B802109010A431A6021007B180222A0
:105650001A607B180122DA607B1810221A617B180D
:1056600000225A627B181800FDF70CFD031E01D0C2
:1056700000F036F820217B180F221A607B180122D7
:105680005A607B1800229A607B180022DA607B182F
:1056900000221A617B1800211800FEF759F8031E3A
:1056A00001D000F01DF83B1D0B221A603B1D0022AB
:1056B0009A603B1D0022DA603B1D00225A613B1DAF
:1056C0001800FEF72BFA031E01D000F009F8C046BF
:1056D000BD461BB090BDC04600700040FFE7FFFF15
:1056E00080B500AFC046BD4680BD80B586B000AF76
:1056F000F8607A600B203B180A1C1A701723FB18FD
:1057000000221A703B181B78002B03D1FB687A68C3
:105710005A6004E01723FB1801221A70C0461723B1
:10572000FB181B781800BD4606B080BD80B582B05E
:1057300000AF786039607B68002B01D1012303E062
:105740007B683A681A6000231800BD4602B080BD2D
:1057500080B584B000AF78607B681B681F2213405F
:10576000FB600122FB689A401300BB60094B5B6938
:10577000BA68134009D0074BBA685A617B685B6806
:10578000002B02D07B685B689847C046BD4604B0DA
:1057900080BDC0460004014080B500AF074B5A6B86
:1057A000064B01210A435A63044B9A6B034B802139
:1057B00049050A439A63C046BD4680BD00100240B9
:1057C00080B500AFC046BD4680BD80B500AFFEE7E6
:1057D00080B500AFC046BD4680BD80B500AFC046B5
:1057E000BD4680BD80B500AFFCF72EF9C046BD4672
:1057F00080BD000080B500AF034B1800FFF7A8FF85
:10580000C046BD4680BDC046BC00002080B586B005
:1058100000AFF860B9607A6000237B610AE000E0C5
:1058200000BF0100BB685A1CBA60CAB21A707B691B
:1058300001337B617A697B689A42F0DB7B681800F0
:10584000BD4606B080BD80B586B000AFF860B960D7
:105850007A6000237B6109E0BB685A1CBA601B7840
:10586000180000E000BF7B6901337B617A697B68C7
:105870009A42F1DB7B681800BD4606B080BD00008F
:1058800080B584B000AF7860114B1B68002B02D14B
:105890000F4B104A1A600E4B1B68FB600C4B1A68CA
:1058A0007B68D2186B469A4207D900F089F9030049
:1058B0000C221A6001235B4206E0054B1A687B68E4
:1058C000D218034B1A60FB681800BD4604B080BDB7
:1058D000741500208816002080B582B000AF786073
:1058E00001235B421800BD4602B080BD80B582B086
:1058F00000AF786039603B68802292015A600023D3
:105900001800BD4602B080BD80B582B000AF78609F
:1059100001231800BD4602B080BD80B584B000AF41
:10592000F860B9607A6000231800BD4604B080BDFD
:1059300080B500AF174B1A68164B802149000A4307
:105940001A60144BDA68134B13490A40DA60114BA2
:105950001A68104B11490A401A600E4B9A680D4B99
:1059600001218A439A600B4B1A680A4B0C490A4082
:105970001A60084BDA68074B0A490A40DA60054B9F
:1059800000221A61084B802212059A60C046BD466B
:1059900080BDC046001002400C40FF88F6FFF6FEB6
:1059A000FFFFFBFFFFFF02FF00ED00E080B500AF4F
:1059B000144B154A1A60134BE12252025A60114BE4
:1059C00000229A600F4B0022DA600E4B00221A610F
:1059D0000C4B0C225A610B4B00229A61094B00229E
:1059E000DA61084B00221A62064B00225A62054B0C
:1059F0001800FEF7C9F9031E01D0FFF771FEC0467B
:105A0000BD4680BD781500200038014080B500AF4C
:105A1000144B154A1A60134BE12252025A60114B83
:105A200000229A600F4B0022DA600E4B00221A61AE
:105A30000C4B04225A610B4B00229A61094B002245
:105A4000DA61084B00221A62064B00225A62054BAB
:105A50001800FEF7EDF9031E01D0FFF741FEC04626
:105A6000BD4680BDF81500200044004090B58BB0C5
:105A700000AF786014243B19180014231A00002189
:105A800000F0AFFA7B681B68354A93422BD1354B47
:105A90005A6B344B8021C9010A435A63314BDA6A8D
:105AA000304B01210A43DA622E4BDB6A012213409C
:105AB0003B613B693B19C022D2001A6021007B1870
:105AC00002225A607B1800229A607B180322DA6057
:105AD0007B1804221A617A18A023DB051100180034
